:020000040800F2
:100000002807002045010008590300081B030008C9
:1000100055030008F7010008A90D000800000000C2
:100020000000000000000000000000001D080008A3
:10003000FB01000800000000D90700083109000892
:100040005F0100085F0100085F0100085F01000810
:100050005F0100085F0100085F0100085F01000800
:100060005F0100085F0100085F0100085F010008F0
:100070005F0100085F0100085F0100085F010008E0
:100080005F0100085F0100085F0100085F010008D0
:100090005F0100085F0100085F0100085F010008C0
:1000A0005F0100085F0100085F0100085F010008B0
:1000B000D10900085F0100085F0100085F01000826
:1000C0005F0100085F0100085F0100085F01000890
:1000D0005F0100085F0100085F0100085F01000880
:1000E0005F0100085F0100085F0100085F01000870
:1000F0005F0100085F0100085F0100085F01000860
:100100005F0100085F0100085F0100085F0100084F
:100110005F0100085F0100085F0100085F0100083F
:100120005F0100085F0100085F0100085F0100082F
:10013000DFF80CD000F022F800480047190E000844
:10014000280700200648804706480047FEE7FEE7EC
:10015000FEE7FEE7FEE7FEE7FEE7FEE7FEE7FEE777
:100160007109000831010008034611F8012B00F85D
:10017000012B002AF9D1184670470000064C074DA4
:1001800006E0E06840F0010394E807009847103467
:10019000AC42F6D3FFF7D0FF7C1800089C1800088B
:1001A00070B58C1810F8015B15F0070301D110F839
:1001B000013B2A1106D110F8012B03E010F8016B66
:1001C00001F8016B5B1EF9D12B0705D40023521EE9
:1001D0000DD401F8013BFAE710F8013BCB1A921C51
:1001E00003E013F8015B01F8015B521EF9D5A1424F
:1001F000D8D3002070BD00BFFEE770472DE9F04165
:10020000024600250026002000230024002791F844
:1002100003C00CF00F0591F803C00CF0100CBCF1FA
:10022000000F03D091F802C04CEA050591F800C018
:10023000BCF1000F31D0146800202BE04FF0010C0E
:100240000CFA00F3B1F800C00CEA03069E4220D17C
:1002500083004FF00F0C0CFA03F7BC4305FA03FCC4
:100260004CEA040491F803C0BCF1280F06D14FF00A
:10027000010C0CFA00FCC2F814C00AE091F803C0AB
:10028000BCF1480F05D14FF0010C0CFA00FCC2F88C
:1002900010C0401C0828D1D31460B1F800C0BCF1D4
:1002A000FF0F34DD546800202EE000F1080C4FF001
:1002B000010808FA0CF3B1F800C00CEA03069E42EC
:1002C00021D183004FF00F0C0CFA03F7BC4305FA61
:1002D00003FC4CEA040491F803C0BCF1280F05D1DB
:1002E00000F1080C08FA0CF8C2F8148091F803C069
:1002F000BCF1480F07D100F1080C4FF0010808FAD3
:100300000CF8C2F81080401C0828CED35460BDE819
:10031000F081416170470161704700BFFEE7000056
:1003200008B50121102000F069FAFF20ADF80000A7
:1003300010208DF8030003208DF802006946044860
:10034000FFF75CFFFF210248FFF7E5FF08BD000053
:100350000010014000BFFEE7704710B54FF4A060E9
:1003600000F03AF810BD000070B5002100230F2204
:10037000C47804B3154C246804F4E064C4F5E06464
:10038000210AC1F10403CA40447804FA03F18478D5
:100390001440214309010E4C0678A155047804F05D
:1003A0001F050124AC4005786D11AD0005F1E02575
:1003B000C5F8004109E0047804F01F050124AC40B1
:1003C000044D0678761145F8264070BD0CED00E02E
:1003D00000E400E080E100E002490143024A1160CC
:1003E000704700000000FA050CED00E070B5002435
:1003F00019E004F1B001C8B2002100F0B5F9002104
:10040000022000F0B1F90021102000F0ADF9002524
:1004100005E00121002000F0A7F9681CC5B2802D7D
:10042000F7DB601CC4B2082CE3DB70BD08B501210A
:100430004FF4947000F0E2F94FF4FC70ADF8000056
:1004400010208DF8030003208DF8020069465A48F9
:10045000FFF7D4FE4FF4FC715748FFF75CFF032011
:10046000ADF8000069465548FFF7C8FE0321534820
:10047000FFF751FF4FF40040ADF8000069465048C7
:10048000FFF7BCFE4FF400414D48FFF744FF102139
:100490004948FFF740FF642000F098FC10214648CF
:1004A000FFF737FF642000F091FC10214248FFF76E
:1004B00032FF0021AE2000F057F90021022000F0A9
:1004C00053F90021102000F04FF90021402000F0E6
:1004D0004BF90021812000F047F90021CF2000F0E6
:1004E00043F90021A12000F03FF90021C82000F0CD
:1004F0003BF90021A62000F037F90021A82000F0E8
:1005000033F900213F2000F02FF90021812000F075
:100510002BF90021FF2000F027F90021D32000F063
:1005200023F90021084600F01FF90021D52000F032
:100530001BF90021802000F017F90021D92000F0DC
:1005400013F90021F12000F00FF90021DA2000F06A
:100550000BF90021122000F007F90021DB2000F048
:1005600003F90021402000F0FFF80021202000F0D6
:10057000FBF80021022000F0F7F800218D2000F0A8
:10058000F3F80021142000F0EFF80021A42000F07F
:10059000EBF80021A62000F0E7F80021AF2000F0E2
:1005A000E3F80021AF2000F0DFF8FFF71FFF002184
:1005B000084600F007F808BD001401400010014093
:1005C0000020014070B504460D4605F1B001C8B2E7
:1005D000002100F0C9F8102141EA1410002100F0B8
:1005E000C3F804F00F0141F00100002100F0BCF855
:1005F00070BD00002DE9F04107460E4690460025EB
:100600000024A8F12000C5B27F2F02DD0027B01C16
:10061000C6B21F480078102824D131463846FFF76B
:10062000D1FF002408E004EB05111A4A505C0121B7
:1006300000F09AF8601CC4B2082CF4DB701CC1B244
:100640003846FFF7BFFF002409E004EB051108312D
:10065000104A505C012100F087F8601CC4B2082CDD
:10066000F3DB12E031463846FFF7ACFF00240AE026
:1006700005EB4501084A02EB4101085D012100F04C
:1006800073F8601CC4B2062CF2DBBDE8F0810000F8
:10069000C00100208A120008621000082DE9FF5FE7
:1006A000074691461D460E9E4FF0000A002433E097
:1006B000281B401EC1B20A2000F0D8FBB9FBF0F0A5
:1006C0000A21B0FBF1F201FB1208BAF1000F13D1BD
:1006D000681EA04210DDB8F1000F0BD1B34606EB47
:1006E000DB71491001FB0471C8B220220199FFF7A8
:1006F00081FF0FE04FF0010AB34606EBDB714910B2
:1007000001FB0471C8B208F13001CAB20199FFF7C8
:1007100071FF00BF601CC4B2AC42C9DBBDE8FF9FE3
:100720002DE9F04104460F461546002615E0AA5D66
:1007300039462046FFF75EFF0A480078102803D1AB
:1007400004F10800C4B201E0A01DC4B2782C02DD9F
:100750000024B81CC7B2701CC6B2A85D0028E6D140
:10076000BDE8F081C001002070B504460E4626B1F8
:1007700020211848FFF7CFFD03E020211548FFF79F
:10078000C8FD08211348FFF7C4FD002517E04021EC
:100790001048FFF7BEFD04F0800020B180210D4815
:1007A000FFF7B9FD03E080210A48FFF7B2FD4021C1
:1007B0000848FFF7B0FD6006040E681CC5B2082D9E
:1007C000E5DB08210348FFF7A6FD20210148FFF7DC
:1007D000A2FD70BD001401407047000029B1064A17
:1007E000D2690243044BDA6104E0034AD2698243CE
:1007F000014BDA61704700000010024029B1064A3F
:1008000092690243044B9A6104E0034A926982436D
:10081000014B9A617047000000100240704710B50C
:1008200000F002F810BD00000CB50020019000900F
:100830003348006840F480303149086000BF3048D8
:10084000006800F4003000900198401C019000986E
:1008500018B90198B0F5A06FF1D12948006800F4EB
:10086000003010B10120009001E0002000900098BD
:10087000012843D12348006840F010002149086056
:100880000846006820F0030008600846006840F051
:10089000020008601A4840681949486008464068E4
:1008A00048600846406840F48060486008464068F8
:1008B00020F47C1048600846406840F4E810486026
:1008C0000846006840F08070086000BF0C4800686F
:1008D00000F000700028F9D00948406820F00300BB
:1008E000074948600846406840F00200486000BF81
:1008F0000348406800F00C000828F9D10CBD000046
:100900000010024000200240042808D14FF0E021EE
:10091000096941F004014FF0E022116107E04FF056
:10092000E021096921F004014FF0E02211617047D4
:100930007047000010B504466FF00400FFF7E4FFB5
:10094000E11704EB5171C1F3C701074A117010465A
:10095000007800EB4001C1EBC0104FF6FF7101EAD7
:10096000C0000249088010BDC4010020C60100205B
:1009700010B51348006840F00100114908600846AE
:100980004068104908400E494860084600680E4912
:1009900008400B4908600846006820F48020086081
:1009A0000846406820F4FE0048604FF41F0088604D
:1009B000FFF735FF4FF000600449086010BD0000EC
:1009C000001002400000FFF8FFFFF6FE08ED00E017
:1009D00010B50121880700F0C0F830B1FFF706FD1F
:1009E0000C220121034800F06FFA0121880700F072
:1009F000A5F810BDC80100207FB505460C460121B1
:100A00000846FFF7EBFEADF80850ADF804400020B3
:100A1000ADF80A00ADF8060001A94FF0804000F0E3
:100A200071F901221146900700F0A8F8012188070A
:100A300000F084F81C208DF8000002208DF80100E1
:100A400003208DF8020001208DF803006846FFF7AF
:100A50008BFC0121880700F074F87FBD30B58DB0A4
:100A600005460C4601210420FFF7C8FE01210220A3
:100A7000FFF7B4FE4020ADF8040003208DF8060017
:100A800018208DF8070001A92448FFF7B7FB802044
:100A9000ADF8000003208DF8020018208DF8030047
:100AA00069461E48FFF7AAFBADF82C50ADF8284068
:100AB0000020ADF82E00ADF82A000AA9184800F071
:100AC00021F96020ADF818000020ADF820000120C9
:100AD000ADF81A0006A9124800F05AF86020ADF8E7
:100AE00008000020ADF810000120ADF80A0002A9AE
:100AF0000B4800F0A3F80821094800F095F80821F8
:100B0000074800F0EDF80121054800F00BF801213D
:100B1000034800F016F80DB030BD00000008014099
:100B20000004004021B1028842F08002028004E00B
:100B300002884FF67F731A4002807047CA430282D0
:100B4000704721B1028842F00102028004E002886D
:100B50004FF6FE731A400280704730B502460020FF
:100B600000230024158A05EA0103958905EA01049A
:100B700013B10CB1012000E0002030BD1AB183890F
:100B80000B43838102E083898B438381704700009C
:100B900070B5002400220023058C4FF6FE76354008
:100BA0000584028C8388048B4FF68F752C40B51E0C
:100BB0002C400D882C43751E2A400D892A434D88F0
:100BC0002A43144DA8420BD0134DA84208D0134D10
:100BD000A84205D0124DA84202D0124DA84213D10E
:100BE0004FF6F7752A404D892A434FF6FB752A4088
:100BF0008D882A434FF6FF652B404FF6FF552B405B
:100C00008D892B43CD892B4383800483CD888586B2
:100C1000028470BD002C01400034014000400140BE
:100C200000440140004801400A460021018B4FF674
:100C3000F7731940114301837047000070B5002419
:100C400000220023058C4FF6EF7635400584028C98
:100C50008388048B48F6FF752C404FF6FF452C40E7
:100C60000D884FF6FF7606EA05252C434FF6DF7513
:100C70002A400D8906EA05152A434D8806EA05151E
:100C80002A43154DA84202D0144DA8421DD14FF65B
:100C90007F752A404D894FF6FF7606EA05152A43EF
:100CA0004FF6BF752A408D8806EA05152A434FF690
:100CB000FF352B404FF2FF752B408D8906EA8505E5
:100CC0002B43CD8906EA85052B4383800483CD8899
:100CD0000587028470BD0000002C014000340140F3
:100CE0000A460021018B4FF2FF7319404FF6FF7344
:100CF00003EA022319430183704781867047018705
:100D000070470000002202881D4B98420ED01D4BF8
:100D100098420BD0B0F1804F08D01B4B984205D0C1
:100D20001A4B984202D01A4B984204D14FF68F7357
:100D30001A404B881A43174B984207D0164B9842DB
:100D400004D04FF6FF431A40CB881A4302808B88A9
:100D500083850B8803850A4B98420BD0094B984238
:100D600008D00E4B984205D00D4B984202D00D4B47
:100D7000984201D10B7A03860123838270470000D9
:100D8000002C0140003401400004004000080040F5
:100D9000000C0040001000400014004000400140E2
:100DA000004401400048014000BFFEE702E008C8DF
:100DB000121F08C1002AFAD170477047002001E0D5
:100DC00001C1121F002AFBD1704700000146114AE1
:100DD00012884A434FF0E0235A6100229A611A4672
:100DE000126942F001021A6100BF4FF0E02210695F
:100DF00000F001021AB100F48032002AF5D04FF061
:100E0000E022126922F001024FF0E0231A61002271
:100E10009A617047C60100204820FFF78BFDFFF75D
:100E20007FFAFFF79AFAFFF701FBFFF7DFFA41F6C7
:100E30003F11C820FFF7E0FD012000F0E9F84FF472
:100E4000FA71012000F01EF8FA21022000F01AF8D1
:100E50004FF4537303A20021034800F0E9F800BFE8
:100E6000FEE7000073660000C801002010B50246CE
:100E7000012000E050430B1EA1F10104E1B2F9D1C1
:100E800010BD000070B504460D464FF47A7095FB16
:100E9000F0F00B490988484386B2012C02D0022C9D
:100EA0000AD104E031460748FFF727FF05E0314645
:100EB0000448FFF724FF00E000BF00BF70BD000042
:100EC000C2010020000400402DE9F8430646884690
:100ED00017460025102F04D110204C490870042516
:100EE00003E00C20494908700825B8F1000F03D031
:100EF000B8F1010F7ED12BE00020044625E0082048
:100F000090FBF5F0604300F0FF0904EB440000EBB8
:100F1000C40006EB400249460020FFF701FC082010
:100F200090FBF5F0604300F0FF0904EB440000EB98
:100F3000C40006EB40000097828A06234946402001
:100F4000FFF7ACFB601CC0B20446AC42D7DB59E0F3
:100F50000020044650E0082090FBF5F0604300F0CC
:100F6000FF09600000EB400101EBC00006EB40020E
:100F700049460020FFF7D4FB082090FBF5F06043C2
:100F800000F0FF09600000EB400101EBC00006EB40
:100F900040000097828A042349462020FFF77EFB09
:100FA000082090FBF5F0604300F0FF096000401C52
:100FB00000EB400101EBC00006EB40024946402037
:100FC000FFF7AEFB082090FBF5F0604300F0FF094F
:100FD0006000401C00EB400101EBC00006EB40004C
:100FE0000097828A042349466020FFF757FB601C64
:100FF000C0B200E003E00446AC42ACDB02E00020FB
:10100000BDE8F88300BF00BFFAE70000C001002080
:1010100010B504464FF47A7090FBF4F00349088051
:10102000472102480088FFF719FD10BDC2010020CA
:101030002DE9F04104460D4616461F4605EB4501D5
:1010400001EBC50104EB41003146FFF78DF805EBDC
:10105000450000EBC50004EB400087820120BDE89D
:10106000F0810000000000000000002F00000000E0
:101070000700070000147F147F1400242A7F2A121F
:10108000006264081323003649552250000005030E
:10109000000000001C224100000041221C0000143E
:1010A000083E08140008083E0808000000A0600080
:1010B0000008080808080000606000000020100810
:1010C0000402003E5149453E0000427F400000427C
:1010D00061514946002141454B31001814127F10DF
:1010E000002745454539003C4A494930000171090E
:1010F000050300364949493600064949291E0000C2
:101100003636000000005636000000081422410068
:101110000014141414140000412214080002015198
:10112000090600324959513E007C1211127C007FA1
:1011300049494936003E41414122007F4141221C3C
:10114000007F49494941007F09090901003E4149A1
:10115000497A007F0808087F0000417F4100002095
:1011600040413F01007F08142241007F4040404041
:10117000007F020C027F007F0408107F003E414187
:10118000413E007F09090906003E4151215E007F72
:10119000091929460046494949310001017F0101E9
:1011A000003F4040403F001F2040201F003F40388C
:1011B000403F0063140814630007087008070061CB
:1011C0005149454300007F41410000552A552A55A9
:1011D000000041417F000004020102040040404041
:1011E0004040000001020400002054545478007F65
:1011F0004844443800384444442000384444487F3C
:1012000000385454541800087E0901020018A4A4A0
:10121000A47C007F080404780000447D4000004066
:1012200080847D00007F102844000000417F400042
:10123000007C04180478007C0804047800384444D6
:10124000443800FC242424180018242418FC007CB2
:101250000804040800485454542000043F4440202B
:10126000003C4040207C001C2040201C003C4030C2
:10127000403C004428102844001CA0A0A07C00444E
:1012800064544C441414141414140000000000009E
:1012900000000000000000000000000000F8000056
:1012A0000000000000333000000000100C06100C9D
:1012B0000600000000000000000040C07840C07838
:1012C0004000043F04043F040400007088FC083020
:1012D0000000001820FF211E0000F008F000E018B8
:1012E000000000211C031E211E0000F00888700071
:1012F00000001E2123241927211010160E000000C3
:1013000000000000000000000000000000E01804E1
:101310000200000000071820400000020418E0004E
:1013200000000040201807000000404080F080408E
:1013300040000202010F01020200000000F0000064
:1013400000000101011F0101010000000000000078
:10135000000080B0700000000000000000000000ED
:101360000000000101010101010100000000000076
:10137000000000303000000000000000000080602D
:101380001804006018060100000000E010080810B2
:10139000E000000F102020100F00001010F80000D7
:1013A00000000020203F202000000070080808886E
:1013B000700000302824222130000030088888483E
:1013C00030000018202020110E000000C02010F86E
:1013D000000000070424243F240000F8088888083F
:1013E00008000019212020110E0000E01088881844
:1013F0000000000F112020110E0000380808C83826
:1014000008000000003F0000000000708808088805
:101410007000001C222121221C0000E0100808108E
:10142000E0000000312222110F00000000C0C000C7
:1014300000000000003030000000000000800000CC
:1014400000000000806000000000000080402010CC
:1014500008000001020408102000404040404040C5
:101460004000040404040404040000081020408028
:10147000000000201008040201000070480808085D
:10148000F0000000003036010000C030C828E8102D
:10149000E0000718272423140B000000C038E000E8
:1014A0000000203C23020227382008F88888887032
:1014B0000000203F202020110E00C030080808083E
:1014C0003800071820202010080008F80808081025
:1014D000E000203F202020100F0008F88888E8084E
:1014E0001000203F20202320180008F88888E808F2
:1014F0001000203F200003000000C030080808381A
:10150000000007182020221E020008F8080000082A
:10151000F808203F210101213F20000808F80808B1
:1015200000000020203F2020000000000808F808EC
:101530000800C08080807F00000008F888C028185C
:101540000800203F20012638200008F8080000008D
:101550000000203F20202020300008F8F800F8F894
:101560000800203F003F003F200008F830C000087E
:10157000F808203F200007183F00E0100808081076
:10158000E0000F10202020100F0008F808080808BD
:10159000F000203F210101010000E01008080810C0
:1015A000E0000F18242438504F0008F888888888F5
:1015B0007000203F2000030C3020007088080808CD
:1015C00038000038202121221C00180808F80808DB
:1015D00018000000203F2000000008F80800000864
:1015E000F808001F202020201F000878880000C86D
:1015F0003808000007380E010000F80800F800085D
:10160000F800033C0700073C030008186880806866
:10161000180820302C03032C30200838C800C838A4
:1016200008000000203F2000000010080808C8380B
:1016300008002038262120201800000000FE0202A9
:1016400002000000007F40404000000C30C000005D
:101650000000000000010638C00000020202FE0087
:101660000000004040407F00000000000402020231
:101670000400000000000000000000000000000066
:101680000000808080808080808000020204000052
:10169000000000000000000000000000808080804A
:1016A00000000019242222223F2008F80080800038
:1016B0000000003F112020110E00000000808080FB
:1016C0000000000E11202020110000000080808802
:1016D000F800000E112020103F2000008080808044
:1016E0000000001F222222221300008080F0888840
:1016F00088180020203F202000000000808080808B
:101700008000006B94949493600008F800808080BF
:101710000000203F210000203F200080989800001A
:1017200000000020203F202000000000008098984A
:10173000000000C08080807F000008F800008080EA
:101740008000203F24022D302000000808F800000F
:1017500000000020203F20200000808080808080CA
:101760008000203F20003F20003F8080008080805C
:101770000000203F210000203F200000808080806A
:101780000000001F202020201F008080008080009B
:10179000000080FFA12020110E000000008080804A
:1017A0008000000E112020A0FF80808080008080BB
:1017B000800020203F2120000100000080808080E8
:1017C00080000033242424241900008080E08080DD
:1017D00000000000001F202000008080000000802A
:1017E0008000001F202020103F208080800000808B
:1017F000808000010E30080601008080008000809B
:1018000080800F300C030C300F000080800080803F
:1018100080000020312E0E3120008080800000806A
:10182000808080818E70180601000080808080801A
:1018300080000021302C2221300000000000807C3C
:10184000020200000000003F404000000000FF00D6
:10185000000000000000FF0000000002027C800089
:1018600000000040403F00000000000601010202AD
:101870000404000000000000000000009C180008A4
:1018800000000020C8010000A0010008581900084D
:10189000C801002060050000BC0D0008211BF010ED
:1018A000012AFF050215F01B0F04012AFF05021390
:1018B0000F18094040405F55555575041A5F0C09D3
:1018C0001121080C11200F094989790909090F20F4
:1018D0001F112FFE02424ACA4A0304134202FE00AD
:1018E0000E14FF40504C4340404F50505C40FF1B93
:1018F000F888012AFF050215F81B1F08012A7F201E
:101900000B109F80E23B808201000916E2A2928ABE
:1019100086828080041840807F172424A4FEA3229E
:101920001B22CCAA011415080601FF2B0104010596
:1019300011FF0202025808101010FF109008C30295
:101940001108080F100444827F01808040432C104E
:08195000284681A0721000007E
:0400000508000131BD
:00000001FF
