:020000040800F2
:10000000C00D0020450100084D0300080F03000843
:1000100049030008EB01000869090008000000001E
:1000200000000000000000000000000019080008A7
:10003000EF01000800000000F507000805090008AE
:100040005F0100085F0100085F0100085F01000810
:100050005F0100085F0100085F0100085F01000800
:100060005F0100085F0100085F0100085F010008F0
:100070005F0100085F0100085F0100085F010008E0
:100080005F0100085F0100085F0100085F010008D0
:100090005F0100085F0100085F0100085F010008C0
:1000A0005F0100085F0100085F0100085F010008B0
:1000B0005F0100085F0100085F0100085F010008A0
:1000C0005F0100085F0100085F0100085F01000890
:1000D0005F0100085F0100085F0100085F01000880
:1000E0005F0100085F0100085F0100085F01000870
:1000F0005F0100085F0100085F0100085F01000860
:100100005F0100085F0100085F0100085F0100084F
:100110005F0100085F0100085F0100085F0100083F
:100120005F0100085F0100085F0100085F0100082F
:10013000DFF80CD000F018F800480047B5090008B7
:10014000C00D00200648804706480047FEE7FEE74E
:10015000FEE7FEE7FEE7FEE7FEE7FEE7FEE7FEE777
:100160000909000831010008064C074D06E0E06867
:1001700040F0010394E8070098471034AC42F6D3EE
:10018000FFF7DAFF84130008A413000870B58D1878
:1001900010F8014B14F0030201D110F8012B2311C8
:1001A00006D110F8013B03E010F8016B01F8016B78
:1001B000521EF9D1ABB110F8012B04F00C048A1ACD
:1001C0000C2C03D0A2EB84129B1C08E010F8014B0E
:1001D000A2EB0422F8E712F8014B01F8014B5B1E79
:1001E000F9D5A942D4D3002070BD00BFFEE7704707
:1001F0002DE9F041024600250026002000230024BE
:10020000002791F803C00CF00F0591F803C00CF023
:10021000100CBCF1000F03D091F802C04CEA0505A8
:1002200091F800C0BCF1000F31D0146800202BE021
:100230004FF0010C0CFA00F3B1F800C00CEA030611
:100240009E4220D183004FF00F0C0CFA03F7BC4301
:1002500005FA03FC4CEA040491F803C0BCF1280F32
:1002600006D14FF0010C0CFA00FCC2F814C00AE0F1
:1002700091F803C0BCF1480F05D14FF0010C0CFA06
:1002800000FCC2F810C0401C0828D1D31460B1F89B
:1002900000C0BCF1FF0F34DD546800202EE000F1F7
:1002A000080C4FF0010808FA0CF3B1F800C00CEA92
:1002B00003069E4221D183004FF00F0C0CFA03F786
:1002C000BC4305FA03FC4CEA040491F803C0BCF1FA
:1002D000280F05D100F1080C08FA0CF8C2F81480B8
:1002E00091F803C0BCF1480F07D100F1080C4FF0A2
:1002F000010808FA0CF8C2F81080401C0828CED378
:100300005460BDE8F081416170470161704700BFF2
:10031000FEE7000008B50121102000F06DFAFF2073
:10032000ADF8000010208DF8030003208DF80200C6
:1003300069460448FFF75CFFFF210248FFF7E5FF2D
:1003400008BD00000010014000BFFEE7704710B577
:100350004FF4A06000F002F810BD00000249014314
:10036000024A1160704700000000FA050CED00E041
:1003700070B5002419E004F1B001C8B2002100F00A
:1003800001FA0021022000F0FDF90021102000F008
:10039000F9F9002505E00121002000F0F3F9681CBF
:1003A000C5B2802DF7DB601CC4B2082CE3DB70BD46
:1003B0002DE9F05F06460F4690461C46DDF828A062
:1003C0004FF0000BE11704EB5171C910A4EBC10110
:1003D00031B92046E11704EB5171C1F3C70506E0BE
:1003E0002046E11704EB5171C910491CCDB23D46BE
:1003F00015E02946304600F0E3F8B1460BE05946D7
:100400000BF1010B1AF80100012100F0BBF909F111
:10041000010000F0FF09C145F1DB681CC5B2A5422F
:10042000E7DBBDE8F09F000008B501214FF49470B0
:1004300000F0E2F94FF4FC70ADF8000010208DF8E8
:10044000030003208DF8020069465A48FFF7D0FEEA
:100450004FF4FC715748FFF758FF0320ADF8000038
:1004600069465548FFF7C4FE03215348FFF74DFF87
:100470004FF40040ADF8000069465048FFF7B8FE61
:100480004FF400414D48FFF740FF10214948FFF766
:100490003CFF642000F079FA10214648FFF733FF53
:1004A000642000F072FA10214248FFF72EFF00216D
:1004B000AE2000F067F90021022000F063F900216E
:1004C000102000F05FF90021402000F05BF90021CE
:1004D000812000F057F90021CF2000F053F90021CE
:1004E000A12000F04FF90021C82000F04BF90021B5
:1004F000A62000F047F90021A82000F043F90021D0
:100500003F2000F03FF90021812000F03BF900215D
:10051000FF2000F037F90021D32000F033F900214B
:10052000084600F02FF90021D52000F02BF900211A
:10053000802000F027F90021D92000F023F90021C4
:10054000F12000F01FF90021DA2000F01BF9002152
:10055000122000F017F90021DB2000F013F9002130
:10056000402000F00FF90021202000F00BF90021BD
:10057000022000F007F900218D2000F003F900218E
:10058000142000F0FFF80021A42000F0FBF8002167
:10059000A62000F0F7F80021AF2000F0F3F80021CA
:1005A000AF2000F0EFF8FFF7E3FE0021084600F06F
:1005B00007F808BD00140140001001400020014070
:1005C00070B504460D4605F1B001C8B2002100F037
:1005D000D9F8102141EA1410002100F0D3F804F0FA
:1005E0000F0141F00100002100F0CCF870BD0000C7
:1005F0002DE9F04180460E4615460027314640461B
:10060000FFF7DEFF00240AE0124A02EB8511085DC5
:10061000012100F0B7F8781CC7B2601CC4B2102CDE
:10062000F2DB701CC1B24046FFF7CAFF00240CE0A9
:100630006900491C074A02EB4111085D012100F0E5
:10064000A1F8781CC7B2601CC4B2102CF0DBBDE866
:10065000F0810000000800202DE9F04107460E4619
:10066000904600250024A8F12000C5B27F2F02DDAE
:100670000027B01CC6B231463846FFF7A1FF002460
:1006800008E004EB05110F4A505C012100F07AF8F4
:10069000601CC4B2082CF4DB701CC1B23846FFF7F2
:1006A0008FFF002409E004EB05110831054A505C76
:1006B000012100F067F8601CC4B2082CF3DBBDE830
:1006C000F0810000920D00082DE9FF5F074691467A
:1006D0001D460E9E4FF0000A002433E0281B401EEA
:1006E000C1B20A2000F036FAB9FBF0F00A21B0FBE3
:1006F000F1F201FB1208BAF1000F13D1681EA042FB
:1007000010DDB8F1000F0BD1B34606EBDB714910D9
:1007100001FB0471C8B220220199FFF79DFF0FE091
:100720004FF0010AB34606EBDB71491001FB04717F
:10073000C8B208F13001CAB20199FFF78DFF00BFBE
:10074000601CC4B2AC42C9DBBDE8FF9F2DE9F0419B
:1007500004460F46154600260EE0AA5D394620469F
:10076000FFF77AFF04F10800C4B2782C02DD002400
:10077000B81CC7B2701CC6B2A85D0028EDD1BDE898
:10078000F081000070B504460E4626B120211848BD
:10079000FFF7BBFD03E020211548FFF7B4FD08215A
:1007A0001348FFF7B0FD002517E040211048FFF780
:1007B000AAFD04F0800020B180210D48FFF7A5FDBF
:1007C00003E080210A48FFF79EFD40210848FFF71B
:1007D0009CFD6006040E681CC5B2082DE5DB0821EF
:1007E0000348FFF792FD20210148FFF78EFD70BD01
:1007F000001401407047000029B1064A9269024383
:10080000044B9A6104E0034A92698243014B9A6166
:100810007047000000100240704710B500F002F869
:1008200010BD00000CB50020019000903348006816
:1008300040F480303149086000BF3048006800F45F
:10084000003000900198401C0190009818B9019860
:10085000B0F5A06FF1D12948006800F4003010B164
:100860000120009001E0002000900098012843D171
:100870002348006840F010002149086008460068DD
:1008800020F0030008600846006840F0020008609D
:100890001A48406819494860084640684860084658
:1008A000406840F4806048600846406820F47C104E
:1008B00048600846406840F4E81048600846006810
:1008C00040F08070086000BF0C48006800F00070C5
:1008D0000028F9D00948406820F003000749486023
:1008E0000846406840F00200486000BF0348406886
:1008F00000F00C000828F9D10CBD000000100240E7
:10090000002002407047000010B51348006840F016
:1009100001001149086008464068104908400E4926
:100920004860084600680E4908400B4908600846C0
:10093000006820F4802008600846406820F4FE002B
:1009400048604FF41F008860FFF767FF4FF00060BA
:100950000449086010BD0000001002400000FFF8CC
:10096000FFFFF6FE08ED00E000BFFEE702E008C86A
:10097000121F08C1002AFAD170477047002001E019
:1009800001C1121F002AFBD1704710B500210022BF
:10099000800809E0C82105E0C82200E0521E002AB4
:1009A000FCD1491E0029F7D10300A0F10100F1D1CB
:1009B00010BD000008B5FFF7ADFCFFF7C8FCFFF75E
:1009C00033FDFFF7D5FC2024AFE0FFF7D1FC002278
:1009D00011461046FFF70CFE012200211220FFF7FE
:1009E00007FE022200212420FFF702FE032200213D
:1009F0003620FFF7FDFD042200214820FFF7F8FD17
:100A0000052200215A20FFF7F3FD062200216C2069
:100A1000FFF7EEFD45A203210020FFF797FE47A256
:100A200006210020FFF792FE46A206213F20FFF795
:100A30008DFE224606213020FFF70EFE601CC4B258
:100A40007E2C00DD20241020032322460621009066
:100A50006720FFF739FE4FF4FA50FFF796FF4FF487
:100A6000FA50FFF792FF4FF4FA50FFF78EFF4FF462
:100A7000FA50FFF78AFF4FF4FA50FFF786FF4FF462
:100A8000FA50FFF782FF4FF4FA50FFF77EFFFFF7AF
:100A90006FFC2E4808238022002100900846FFF7B3
:100AA00087FC4FF4FA50FFF770FF4FF4FA50FFF74E
:100AB0006CFF4FF4FA50FFF768FF4FF4FA50FFF75E
:100AC00064FF4FF4FA50FFF760FF4FF4FA50FFF75E
:100AD0005CFF4FF4FA50FFF758FF4FF4FA50FFF75E
:100AE00054FF1B4808238022002100900846FFF78E
:100AF0005FFC4FF4FA50FFF748FF4FF4FA50FFF74E
:100B000044FF4FF4FA50FFF740FF4FF4FA50FFF75D
:100B10003CFF4FF4FA50FFF738FF4FF4FA50FFF75D
:100B200034FF4FF4FA50FFF730FF4EE7312E3327F2
:100B3000204F4C45442054455354000041534349F1
:100B4000493A0000434F44453A00000000000020AD
:100B50000004002010B50246012000E050430B00C5
:100B6000A1F10104E1B2F9D110BD000000000000C4
:100B70000000002F000000000700070000147F1491
:100B80007F1400242A7F2A1200626408132300368F
:100B90004955225000000503000000001C224100BE
:100BA000000041221C000014083E08140008083E02
:100BB0000808000000A060000008080808080000FD
:100BC00060600000002010080402003E5149453ECC
:100BD0000000427F400000426151494600214145EA
:100BE0004B31001814127F10002745454539003C51
:100BF0004A4949300001710905030036494949361F
:100C000000064949291E000036360000000056360D
:100C100000000008142241000014141414140000F1
:100C20004122140800020151090600324959513E7F
:100C3000007C1211127C007F49494936003E414137
:100C40004122007F4141221C007F49494941007FE8
:100C500009090901003E4149497A007F0808087FD7
:100C60000000417F4100002040413F01007F081407
:100C70002241007F40404040007F020C027F007F05
:100C80000408107F003E4141413E007F09090906EA
:100C9000003E4151215E007F09192946004649491D
:100CA00049310001017F0101003F4040403F001FEA
:100CB0002040201F003F4038403F00631408146369
:100CC00000070870080700615149454300007F4153
:100CD000410000552A552A55000041417F0000047B
:100CE00002010204004040404040000001020400B4
:100CF000002054545478007F484444380038444419
:100D0000442000384444487F0038545454180008A4
:100D10007E0901020018A4A4A47C007F08040478C2
:100D20000000447D4000004080847D00007F10284A
:100D300044000000417F4000007C04180478007CDF
:100D40000804047800384444443800FC242424185F
:100D50000018242418FC007C08040408004854549B
:100D6000542000043F444020003C4040207C001CB4
:100D70002040201C003C4030403C004428102844C7
:100D8000001CA0A0A07C004464544C44141414140F
:100D9000141400000000000000000000000000002B
:100DA0000000000000F800000000000000333000E8
:100DB000000000100C06100C0600000000000000EF
:100DC000000040C07840C0784000043F04043F0465
:100DD0000400007088FC08300000001820FF211E6D
:100DE0000000F008F000E018000000211C031E21A4
:100DF0001E0000F00888700000001E21232419271F
:100E0000211010160E00000000000000000000007D
:100E10000000000000E01804020000000007182095
:100E2000400000020418E000000000402018070005
:100E30000000404080F0804040000202010F0102AB
:100E40000200000000F0000000000101011F01018C
:100E50000100000000000000000080B070000000F1
:100E6000000000000000000000000001010101017D
:100E70000101000000000000000000303000000010
:100E800000000000000080601804006018060100E7
:100E9000000000E010080810E000000F10202010F3
:100EA0000F00001010F8000000000020203F20205C
:100EB00000000070080808887000003028242221F3
:100EC00030000030088888483000001820202011A9
:100ED0000E000000C02010F8000000070424243F8A
:100EE000240000F808888808080000192120201133
:100EF0000E0000E0108888180000000F112020115B
:100F00000E0000380808C83808000000003F000044
:100F100000000070880808887000001C222121222F
:100F20001C0000E010080810E0000000312222112F
:100F30000F00000000C0C0000000000000303000C2
:100F40000000000000800000000000008060000041
:100F5000000000008040201008000001020408107A
:100F60002000404040404040400004040404040489
:100F70000400000810204080000000201008040237
:100F80000100007048080808F00000000030360139
:100F90000000C030C828E810E000071827242314F8
:100FA0000B000000C038E0000000203C23020227B4
:100FB000382008F8888888700000203F2020201101
:100FC0000E00C0300808080838000718202020103C
:100FD000080008F808080810E000203F2020201032
:100FE0000F0008F88888E8081000203F2020232000
:100FF000180008F88888E8081000203F2000030047
:101000000000C03008080838000007182020221E01
:10101000020008F808000008F808203F210101211B
:101020003F20000808F8080800000020203F20208A
:10103000000000000808F8080800C08080807F00D9
:10104000000008F888C028180800203F2001263832
:10105000200008F8080000000000203F2020202089
:10106000300008F8F800F8F80800203F003F003F83
:10107000200008F830C00008F808203F20000718BA
:101080003F00E01008080810E0000F10202020109A
:101090000F0008F808080808F000203F21010101AE
:1010A0000000E01008080810E0000F182424385051
:1010B0004F0008F8888888887000203F2000030CC3
:1010C00030200070880808083800003820212122CC
:1010D0001C00180808F8080818000000203F20002D
:1010E000000008F808000008F808001F2020202051
:1010F0001F000878880000C83808000007380E0173
:101100000000F80800F80008F800033C0700073C5E
:101110000300081868808068180820302C03032C0E
:1011200030200838C800C83808000000203F2000E0
:10113000000010080808C8380800203826212020A0
:101140001800000000FE020202000000007F404084
:101150004000000C30C00000000000000001063814
:10116000C00000020202FE000000004040407F007C
:101170000000000004020202040000000000000061
:10118000000000000000000000008080808080805F
:101190008080000202040000000000000000000047
:1011A000000000008080808000000019242222229C
:1011B0003F2008F8008080000000003F112020112F
:1011C0000E000000008080800000000E1120202012
:1011D0001100000000808088F800000E112020100F
:1011E0003F200000808080800000001F22222222F9
:1011F0001300008080F0888888180020203F20207D
:1012000000000000808080808000006B94949493A4
:10121000600008F8008080800000203F210000204E
:101220003F2000809898000000000020203F2020F0
:101230000000000000809898000000C08080807F3F
:10124000000008F8000080808000203F24022D303C
:101250002000000808F8000000000020203F2020A7
:1012600000008080808080808000203F20003F2020
:10127000003F8080008080800000203F210000200F
:101280003F200000808080800000001F2020202060
:101290001F00808000808000000080FFA1202011BE
:1012A0000E000000008080808000000E112020A031
:1012B000FF80808080008080800020203F212000EF
:1012C00001000000808080808000003324242424DA
:1012D0001900008080E0808000000000001F2020B6
:1012E00000008080000000808000001F202020106F
:1012F0003F20808080000080808000010E30080642
:10130000010080800080008080800F300C030C3052
:101310000F0000808000808080000020312E0E3180
:101320002000808080000080808080818E70180680
:10133000010000808080808080000021302C2221EC
:10134000300000000000807C020200000000003F2E
:10135000404000000000FF00000000000000FF000F
:1013600000000002027C800000000040403F0000BE
:101370000000000601010202040400000000000059
:1013800000000000A413000800000020C0090000B5
:101390008C0100084C160008C00900200004000061
:1013A0007C09000840120003050911FF118905C3DB
:1013B00000E000F000F8000100083A4428FF11AAFC
:1013C000440001500B8301384482929274018311CE
:1013D00020087C44FF017D7D7D04410540047D01A2
:1013E000FF6E920102613F033B01017E8141914901
:1013F000F20101011BC230083F3F0303F313110147
:10140000100601F1116181402005816111F147331E
:10141000414107200401C12120A321C11431193108
:1014200037040736D33303033F3F426006E0E00052
:10143000007FA8127FBF40040618060A10080000AB
:1014400040407F4040A410041F204001A3201F14EF
:101450003300600E6004300C03460534C2100407EC
:101460000706017009040404844444448407800589
:101470000484C4041501120A71112140073D0707B5
:10148000C9200F0000101814121100000F101010C6
:101490000F0F131F1015600D081012120D00001809
:1014A00000000D120A51295130015E0152800101E4
:1014B0003B4514047F030CA915DE1C053854545811
:1014C0002503080A2004047800003C40407C2000EA
:1014D000092CFFAAAAAA280800FF68100626494975
:1014E0004932101005020408100F0D6F00049D0111
:1014F000040D9D0004156343F80801240500F81845
:1015000060E82404806018235720202923E010215C
:10151000A310E01449B4313908043C886818630DFD
:1015200015FF037DEA039DFF0371144DFF031D06A4
:10153000043D2E040942E91C0640202020C04A0434
:10154000110721EA3E40520452600E811871295160
:10155000070D4769031C060C0A0A090C0004156BE9
:101560002D00042004080F081510050809090E07AE
:101570001D180430050909090F0A512951070DFFEB
:1015800000040D2200041F00F056052310FF050E75
:1015900013F07D052E0FD9052EFFF2050A120F1B41
:1015A000100840405F55555575045B5F4080D93C3D
:1015B00024060F09498979A30211201F200800FE83
:1015C00002424ACA4A030004124202FEE50C0C130E
:1015D00040504C4340404F50505C40EA0413F88860
:1015E0000122FF050E13F8C6072E1F8903227F2054
:1015F00003109F80E2338082010C0716E2A2928AD8
:101600008682CB050C041640807F24080C0B142422
:1016100024A4FEA3220022CC0088051F0806E508AA
:101620003E011D070C0510FF020202DB06257C535C
:101630009008C3FE088407080F100444827F0180CD
:0C1640008040432C102846816B00000005
:0400000508000131BD
:00000001FF
