:020000040800F2
:1000000040D0002045010008C9150008A1100008D3
:10001000C51500088D0900088F26000800000000A3
:10002000000000000000000000000000351E000875
:10003000910900080000000051160008491F00083F
:100040005F0100085F0100085F0100085F01000810
:100050005F0100085F0100085F0100085F01000800
:100060005F0100085F0100085F0100085F010008F0
:100070005F0100085F0100085F0100085F010008E0
:100080005F0100085F0100085F0100085F010008D0
:100090005F0100085F0100085F0100085F010008C0
:1000A0005F0100085F0100085F0100085F010008B0
:1000B0005F0100085F0100085F0100085F010008A0
:1000C0005F0100085F0100085F0100085F01000890
:1000D0005F010008CD2300085F0100085F010008F0
:1000E0005F0100085F0100085F0100085F01000870
:1000F0005F0100085F0100085F0100085F01000860
:100100005F0100085F0100085F0100085F0100084F
:100110005F0100085F0100085F0100085F0100083F
:100120005F0100085F0100085F0100085F0100082F
:10013000DFF80CD000F06AFA00480047E5440008F8
:1001400040D000200648804706480047FEE7FEE70B
:10015000FEE7FEE7FEE7FEE7FEE7FEE7FEE7FEE777
:10016000891F00083101000880EA010210B502F081
:100170000043400022D04A001FD0010E01EB126163
:10018000C0F35600C2F3560240F4000042F40002ED
:10019000A0FB022000047F39140400D0401C50EA68
:1001A000124001D44000491EC2B20C0604EBD0102C
:1001B000401C4008802A02D003E0002010BD20F03F
:1001C0000100002900DA0020184310BD30B480EA95
:1001D000010202F0004530F0004221F0004013D04F
:1001E00090B1C30DD40DC2F31601C0F31600E41A8A
:1001F00041F4000140F400027D34914201D3641CBB
:1002000000E04900002C02DA30BC002070474FF4B7
:1002100000000023914201D3891A034340084FEAAA
:100220004101F7D151B1914202D14FF0004105E0B7
:1002300002D24FF0010101E06FF0010103EBC45065
:10024000284430BC00F04EB92DE9FE4F804681EACB
:100250000300C00F0C46009021F0004123F0004540
:10026000B8EB0200A94105D24046214690461C4603
:100270000B46024623F00040104347D0270DC7F33A
:100280000A00C3F30A510290401A019040286BDA29
:10029000C3F3130040F4801B0098924620B1002362
:1002A000D2EB030A63EB0B0B01985946C0F14002F5
:1002B000504600F0E6F806460D4650465946019A6B
:1002C00000F0FEF810EB08006141002487EA1152AB
:1002D00084EAE7731A4340D0009A62B3019A012A74
:1002E0004FEA075215DC001B61EB02014FF00042A0
:1002F00002EA0752CDE90042001C41F58011324666
:100300002B4600F035F903B0BDE8F08F404621469A
:10031000F9E7001B61EB0201001C41F58013001896
:100320005B412018A2F5001747EB030140EAD570A6
:10033000B6196D4111E06D084FEA360645EAC07501
:100340004FEA0752001B61EB0201001C41F58011CE
:1003500049084FEA30000019514132462B4603B09C
:10036000BDE8F04F00F0F5B80098012240000023EE
:10037000D0EB020263EBE073009821464FEAE07491
:10038000B8EB000061EB0401E9E783F000435BE7B1
:1003900081F0004158E7C10F80EAE0700844CA07C5
:1003A0009623002100F0A7B896230022114600F002
:1003B000A2B8C1F30A5210B5C1F3130140F2FF33E2
:1003C00041F480119A4201DA002010BD40F233431B
:1003D0009A42A2F2334203DC524200F061F810BDAF
:1003E000904010BD00F0004230F000400AD0C10D36
:1003F00001F56071C0F3160042EA0151C2084007DE
:10040000114370470020014670470000002801DBBF
:10041000C0F10040002901DBC1F100418842704772
:100420002DE9F05F0546002092469B468846064629
:10043000814640241BE0284641464746224600F0BC
:100440002FF853465A46C01A914110D31146184608
:10045000224600F016F82D1A67EB01084F46224697
:100460000120002100F00DF817EB00094E41201E7D
:10047000A4F10104DFDC484631462A464346BDE884
:10048000F09F202A04DB203A00FA02F10020704796
:100490009140C2F1200320FA03F3194390407047C2
:1004A000202A04DB203A21FA02F00021704721FAC9
:1004B00002F3D040C2F12002914008431946704730
:1004C000202A06DBCB17203A41FA02F043EAE07318
:1004D00006E041FA02F3D040C2F120029140084305
:1004E000194670470029A8BF7047401C490008BF43
:1004F00020F00100704710B4B0FA80FC00FA0CF054
:1005000050EA010404BF10BC704749B1CCF120048B
:1005100021FA04F411FA0CF118BF01212143084318
:10052000A3EB0C01CB1D4FEA00614FEA102042BF44
:10053000002010BC704700EBC35010440029A4BF3A
:1005400010BC7047401C490008BF20F0010010BCDF
:10055000704710B5141E73F1000408DA401C41F115
:10056000000192185B411A4301D120F0010010BD37
:100570002DE9F04D92469B4611B1B1FA81F202E0AD
:10058000B0FA80F220329046FFF77BFF04460F4618
:1005900040EA0A0041EA0B0153465A46084313D089
:1005A000114653EA010019D0C8F140025046FFF746
:1005B00077FF05460E46504659464246FFF761FF13
:1005C000084305D0012004E020463946BDE8F08DFF
:1005D0000020054346EAE0762C4337430A9863053A
:1005E000E40AA0EB08000022FD0A44EA47540A305E
:1005F00002D500200146E9E7010510196941DDE94E
:10060000084500196941BDE8F04DA2E7064C074DC9
:1006100006E0E06840F0010394E8070098471034D2
:10062000AC42F6D3FFF788FDE0FF020800000308A4
:100630004278037842EA03220A80801CC2781206BC
:10064000837842EA0342437842EA032203781A435A
:100650004A600830C2781206837842EA034243783F
:1006600042EA032203781A43CA60001DC2781206C8
:10067000837842EA0342437842EA032203781A432A
:100680000A61001DC2781206837842EA0342437869
:1006900042EA032203781A434A61001DC278120617
:1006A000837842EA0342437842EA032203781A43FA
:1006B0008A61801D0278437842EA0323CB83801C41
:1006C000C2781206837842EA0342437842EA032260
:1006D00003781A430A62001DC2781206837842EA40
:1006E0000342437842EA032203781A434A62001D18
:1006F000C2781206837842EA0342437842EA032230
:1007000003781A438A62001DC2781206837842EA8F
:100710000342437842EA032203781A43CA627047CD
:100720002DE9F14FADF5267D002000F02DFD0122D1
:100730001AA8A69902F0E2FFA490A498002872D10A
:1007400019AB4FF480628E491AA803F0E6F8A49022
:100750000BA98B48FFF76CFF8A480088401C109952
:10076000884205D387484088401C119988422CDA7A
:100770001098FFF719FE834909900988481CFFF774
:100780000AFE08900999FFF721FD07461198FFF727
:1007900002FE7C4909904988481CFFF7FCFD08903F
:1007A0000999FFF713FD80464FF07E513846FFF759
:1007B0002DFE01D24FF07E574FF07E514046FFF79D
:1007C00025FE05D24FF07E5802E04FF07E57B84626
:1007D0000BA8007D00F0030058B1109800EB40001A
:1007E000C0F38F05681C85B24FF6FF7000EA8505DF
:1007F00004E00BA8808A00EB400085B24FF00009AE
:10080000CA46002600200A900E9884B2AEE099E015
:1008100026B1012E08D0022E1AD10FE05848005DF3
:100820004FEAE00B15E0A3E05548005D4FF4FC6192
:1008300001EAC00058441FFA80FB0AE05048005DFE
:100840004FF4784101EA002058441FFA80FB00E091
:1008500000BF00BF601C84B2701CC6B2032E63D1FF
:100860005046FFF7A1FD41460090FFF77DFC019047
:10087000FFF7B8FD0022444BCDE90201FFF7E4FC8D
:10088000CDE90401FFF795FD80B209904846FFF7D6
:100890008BFD39460090FFF767FC0190FFF7A2FD42
:1008A0000022394BCDE90201FFF7CEFCCDE904016E
:1008B000FFF77FFD80B208905046FFF775FD414677
:1008C0000090FFF751FC0190FFF78CFD00222E4BAA
:1008D000CDE90201FFF7B8FCCDE90401FFF769FD9E
:1008E00080B207904846FFF75FFD39460090FFF75A
:1008F0003BFC0190FFF776FD0022234BCDE902017E
:10090000FFF7A2FCCDE90401FFF753FD80B206908A
:1009100007A90EC900F094FC584600F033FE0026EB
:1009200009F101001FFA80F90A98401C80B20A9070
:100930000A98A84206DB00200A9081460AF10100CD
:100940001FFA80FAB4F5806FFFF662AF19AB4FF46F
:1009500080620B491AA802F0E0FFA4900024A4983A
:1009600018B91998B0F5806F00D200E04FE700BFCA
:100970001AA802F004FE0DF5277DBDE8F08F0000F7
:100980003CC80020180000200000E03F00BFFEE748
:100990007047000010B50446214610A001F07AFE11
:1009A000240300F043F900F0DBF800200D49086053
:1009B000202001F0D7F9C4F3074001F0D3F9C4F3C4
:1009C000072001F0CFF9E0B201F0CCF9012006498F
:1009D000C1F8B40100F0C4F810BD000066653A2506
:1009E000780D0A00B40124420000244208B5012118
:1009F0004FF4C47000F04EFE4FF40050ADF800000C
:100A000010208DF8030003208DF8020069461E486F
:100A100000F0B9FA4FF400511B4800F03FFB4FF4CF
:100A20008040ADF800006946174800F0ACFA4FF47A
:100A30008041154800F032FB4FF48050ADF80000C3
:100A400010208DF803006946104800F09CFA4FF41E
:100A500080510E4800F022FB4FF40070ADF800000A
:100A600069460B4800F08FFA4FF40071084800F017
:100A700015FB01200749086001F02EF900F036F857
:100A80000549088008BD000000200140000C01401D
:100A9000001C0140B4012442220000202DE9F04155
:100AA00006460C46174600200F490860032001F057
:100AB00059F9C4F3074001F055F9C4F3072001F0D8
:100AC00051F9E0B201F04EF9002505E0FF2001F0F8
:100AD00049F97055681C85B2BD42F7DB0120024917
:100AE0000860BDE8F0810000B401244210B5002484
:100AF00000200E490860902001F034F9002001F038
:100B000031F9002001F02EF9002001F02BF9FF202F
:100B100001F028F944EA0024FF2001F023F90443FE
:100B200001200349C1F8B401204610BDB40124429C
:100B30000000244210B50024002007490860052069
:100B400001F010F9FF2001F00DF9044601200349DE
:100B5000C1F8B401204610BDB40124420000244273
:100B600010B500BFFFF7E6FF00F001000028F9D143
:100B700010BD00002DE9F05F81460F461646DFF8F4
:100B8000A8B04FEA1738C7F30B0ACAF58054A6423B
:100B900000DC344644E04FEA08314FF480525846B6
:100BA000FFF77CFF002508E00AEB05001BF80000BA
:100BB000FF2800D003E0681C85B2A542F4DB00BF2B
:100BC000A54216DA4046FFF7E5FE002507E019F8D2
:100BD000050005EB0A010BF80100681C85B2A5426F
:100BE000F5DB4FEA08314FF48052584600F02EF8FA
:100BF00004E022463946484600F028F8A64200D1D3
:100C00000FE008F101084FF0000AA1442744301B0F
:100C100086B2B6F5805F02DD4FF4805400E03446C2
:100C2000B9E700BFBDE8F09FD00C002010B5002050
:100C300004490860062001F095F801200249C1F836
:100C4000B40110BDB4012442000024422DE9F0415A
:100C500007460E461446F0B2C0F58075AC4200DC83
:100C6000254612E02A463146384600F013F8AC42D9
:100C700000D10BE02F442E44601B84B2B4F5807F7A
:100C800002DD4FF4807500E02546EBE700BFBDE8CC
:100C9000F08100002DE9F04106460C461746FFF7AB
:100CA000C5FF00200F490860022001F05BF8C4F383
:100CB000074001F057F8C4F3072001F053F8E0B201
:100CC00001F050F8002504E0705D01F04BF8681C5D
:100CD00085B2BD42F8DB012002490860FFF740FF02
:100CE000BDE8F081B40124422DE9FC4707460C46DB
:100CF0001546002000908046814601AA6946384684
:100D000002F04DFC06468EB901984069801E01999B
:100D1000897800FB01F901988078009900FB01F8BF
:100D20004FEA590020604FEA580028603046BDE87D
:100D3000FC87000010B500240EE04FF40C71002079
:100D400003F0DAFE184941F82400084650F8240060
:100D500000B903E0601CC4B2032CEEDB00BF4FF40B
:100D60000A71002003F0C8FE104908604FF40A71B0
:100D7000002003F0C1FE0E4908604FF4007100200E
:100D800003F0BAFE0B490860032C0AD1074800683B
:100D900038B10748006820B10846006808B1002053
:100DA00010BD0120FCE70000ECC600204C00002034
:100DB000500000205C0000202DE9F04192B0074671
:100DC0000D460026284810904FF480701190394647
:100DD00001A802F05EFD8046B8F1000F40D138E076
:100DE0009DF8310000B93AE09DF83000202801D18B
:100DF000012000E000209DF83010102901D10121D0
:100E000000E00021084320B31098007808B1109842
:100E100001E00DF131000446002605E02178A81D0F
:100E20008155701CC6B2641C20782E2802D0207810
:100E30000028F3D10021A81D8155002604E0207868
:100E4000A855701CC6B2641C20780028F7D1A8559C
:100E50006A350AA901A802F038FE0028C0D000BFF8
:100E6000404612B0BDE8F0813CC7002051B182007D
:100E7000A2F1C042126842F001038200A2F1C04216
:100E8000136009E08200A2F1C0421268034B1A40CD
:100E90008300A3F1C0431A6070470000FEFF0F00FB
:100EA000D0E901121143C26811430269114342693A
:100EB000114382691143C2691143026A1143426AB4
:100EC0001143826A1143C26A1143026B11430268E3
:100ED0009200A2F1C0421160816808290BD101681B
:100EE0008900A1F1C041096841F040020168890010
:100EF000A1F1C0410A60416B0968426B526841EA46
:100F00000211426B926841EA0221426B928941EAE6
:100F10000241426B128A41EA0251426B127D41EA60
:100F20000261426B926911430268521C9200A2F165
:100F3000C0421160C16AB1F5804F1BD1816B096855
:100F4000826B526841EA0211826B926841EA022187
:100F5000826B128A41EA0251826B127D41EA026180
:100F6000826B9269114302689200A2F1C042C2F8FA
:100F7000041107E06FF0704201688900A1F1C041DF
:100F8000C1F8042170472DE9F041024600250026F2
:100F9000002000230024002791F803C00CF00F0567
:100FA00091F803C00CF0100CBCF1000F03D091F8C5
:100FB00002C04CEA050591F800C0BCF1000F31D029
:100FC000146800202BE04FF0010C0CFA00F3B1F88C
:100FD00000C00CEA03069E4220D183004FF00F0CA4
:100FE0000CFA03F7BC4305FA03FC4CEA040491F83D
:100FF00003C0BCF1280F06D14FF0010C0CFA00FC25
:10100000C2F814C00AE091F803C0BCF1480F05D142
:101010004FF0010C0CFA00FCC2F810C0401C08286C
:10102000D1D31460B1F800C0BCF1FF0F34DD5468B7
:1010300000202EE000F1080C4FF0010808FA0CF334
:10104000B1F800C00CEA03069E4221D183004FF0A4
:101050000F0C0CFA03F7BC4305FA03FC4CEA04043A
:1010600091F803C0BCF1280F05D100F1080C08FA73
:101070000CF8C2F8148091F803C0BCF1480F07D1F6
:1010800000F1080C4FF0010808FA0CF8C2F81080C3
:10109000401C0828CED35460BDE8F0810161704740
:1010A00000BFFEE708B50121442000F0F3FA01205B
:1010B000ADF8000028208DF8030003208DF8020011
:1010C00069460848FFF75FFF1C20ADF80000482084
:1010D0008DF8030003208DF8020069460248FFF7EF
:1010E00052FF08BD000801400018014010B5044639
:1010F00022480078012826D12148006801280AD01A
:101100002048006838B11F48001F006818B11D480A
:10111000001D0068B8B90A2001F0A8FE0020174998
:10112000087017480068012800D110BD15480068F4
:1011300008B90220F9E71348001F006808B9032026
:10114000F3E70420F1E70E48006878B90D4800681D
:1011500001280BD10B48001F0068012806D109485F
:10116000001D0068012801D104490870012C02D13A
:101170000120024908700020D7E700002400002069
:10118000000121420C01234270B506460F484088F9
:10119000401E83B20D480088401E82B200210846DE
:1011A00000F04EF800240CE0002504E0304600F08A
:1011B000E9F9681C85B205484088A842F6DC601C45
:1011C00084B202480088A042EEDC70BD1800002006
:1011D00000B50246B2B9012000F0C8F94FF48070A2
:1011E00000F0CAF9032000F0C1F941F2300000F02C
:1011F000C3F94FF4C8700E494880F02008800020E1
:10120000887114E0012000F0B1F9002000F0B4F979
:10121000032000F0ABF941F2380000F0ADF9F02006
:10122000034948804FF4C87008800120887100BDD0
:101230001800002001480088704700000008006C7A
:1012400030B505460C462E48807950BB4FF40470EB
:1012500000F08CF9284600F08FF940F2112000F0E0
:1012600085F9104600F088F940F2122000F07EF96E
:10127000204600F081F940F2132000F077F918467B
:1012800000F07AF94FF4007000F070F9284600F091
:1012900073F940F2012000F069F9204600F06CF982
:1012A00029E040F2122000F061F9284600F064F9CC
:1012B00040F2132000F05AF9104600F05DF94FF4A7
:1012C000047000F053F9204600F056F940F2112066
:1012D00000F04CF9184600F04FF940F2012000F000
:1012E00045F9284600F048F94FF4007000F03EF947
:1012F000204600F041F940F2022000F037F930BDFD
:10130000180000202DE9F04F89B005460F4614461D
:101310000026A9E02078802849DA2078A0F120066C
:101320003601554806441022314601A8FFF7B6FBA6
:1013300007F10F0083B2E81D82B239462846FFF755
:101340007FFF4FF0000921E001A810F809B04FF02D
:10135000000814E00BF08000802804D14748008882
:1013600000F010F903E04648008800F00BF94FEA5E
:101370004B604FEA106B08F1010000F0FF08B8F174
:10138000080FE7DB09F1010000F0FF09B9F1100FC8
:10139000DADB641C05F1080085B23A480088083899
:1013A000A84261DA002507F1100087B25CE02078DE
:1013B00081381FFA80FABE200AFB00F694F801A0DB
:1013C000BAF17F0F04DAAAF140001FFA80FA03E0B5
:1013D000AAF141001FFA80FA564476012A480644D1
:1013E0002022314601A8FFF759FB07F10F0083B215
:1013F00005F10F0082B239462846FFF721FF4FF072
:10140000000821E001A810F808B04FF0000914E02E
:101410000BF08000802804D11848008800F0B2F852
:1014200003E01748008800F0ADF84FEA4B604FEA40
:10143000106B09F1010000F0FF09B9F1080FE7DBBB
:1014400008F1010000F0FF08B8F1200FDADB05F128
:10145000100085B20B4800880F38A84203DA002537
:1014600007F1100087B2A41C207800287FF452AF47
:1014700009B0BDE8F08F00004E465D00140000206A
:101480001600002018000020004C5D002DE9F04FF0
:1014900091B0074688461446002659E020788138E6
:1014A00085B2BE2005FB00F665787F2D03DAA5F135
:1014B000400085B202E0A5F1410085B22E44C6EBA2
:1014C0008616264806443F22314601A8FFF7E6FA71
:1014D00008F1140083B207F1170082B24146384682
:1014E000FFF7AEFE4FF0000921E001A810F809B0A7
:1014F0004FF0000A14E00BF08000802804D1184857
:10150000008800F03FF803E01648008800F03AF841
:101510004FEA4B604FEA106B0AF1010000F0FF0A3E
:10152000BAF1080FE7DB09F1010000F0FF09B9F19A
:101530003F0FDADB07F1150087B20B48008815383A
:10154000B84204DA002708F115001FFA80F8A41C3D
:1015500020780028A2D111B0BDE8F08F82FC68008D
:101560001400002016000020180000200149088007
:1015700070470000FE07006C0149088070470000BA
:101580000008006C01490880704700000008006CEA
:1015900008B50121102000F07DF8FF20ADF8000013
:1015A00010208DF8030003208DF8020069460448DE
:1015B000FFF7E9FCFF210248FFF770FD08BD0000BE
:1015C0000010014000BFFEE77047000070B5002129
:1015D00000230F22C47804B3154C246804F4E0649B
:1015E000C4F5E064210AC1F10403CA40447804FA56
:1015F00003F184781440214309010E4C0678A1556B
:10160000047804F01F050124AC4005786D11AD008D
:1016100005F1E025C5F8004109E0047804F01F0554
:101620000124AC40044D0678761145F8264070BD83
:101630000CED00E000E400E080E100E0024901433D
:10164000024A1160704700000000FA050CED00E04E
:101650007047000029B1064A52690243044B5A619F
:1016600004E0034A52698243014B5A61704700000B
:101670000010024029B1064AD2690243044BDA61E4
:1016800004E0034AD2698243014BDA6170470000EB
:101690000010024029B1064A92690243044B9A6144
:1016A00004E0034A92698243014B9A61704700004B
:1016B0000010024030B500210022002400232D4DEF
:1016C0006D6805F00C0121B1042905D0082923D14A
:1016D00005E0294D056022E0274D05601FE0254DFE
:1016E0006D6805F47012234D6D6805F48034022591
:1016F00005EB92421CB9214D554305600BE01D4D91
:101700006D6805F400351DB11C4D5543056002E0C0
:10171000194D5543056002E0174D056000BF00BF3D
:10172000144D6D6805F0F0010909154D6B5C0568F5
:10173000DD4045600F4D6D6805F4E061090A104D0C
:101740006B5C4568DD4085600A4D6D6805F460514D
:10175000C90A0B4D6B5C4568DD40C560054D6D6881
:1017600005F44041890B074D6B5CC568B5FBF3F58B
:10177000056130BD0010024000127A0000093D00F2
:10178000000000201000002010B501200249086070
:10179000FF2000F0C3F910BDB801244270B5054622
:1017A00001220021092000F002FA044624B9102188
:1017B000284600F055F90446FFF7E6FF0CB101207A
:1017C00070BD0020FCE770B505464FF6FF7401E0E0
:1017D000601E84B2FF2000F0A1F9A84201D0002CC5
:1017E000F6D10CB9FF2070BD0020FCE77FB568463C
:1017F000FFF7D4FF10B1002004B070BD9DF80000C9
:1018000000F0C000402809D19DF809009DF808109B
:1018100000EB0120401C84B2A50220E09DF80500E9
:1018200000F00F009DF80A1000EBD1109DF8091090
:1018300001F0030100EB4100861C9DF808008011B7
:101840009DF8071000EB81009DF8061001F00301E0
:1018500000EB8120441CA6F1090004FA00F528469B
:10186000CAE70000F8B500F017F900F062F90025AA
:1018700004E0FF2000F052F9681C85B20A2DF8DB65
:10188000142600BF95220021084600F090F9044676
:10189000012C04D03000A6F101018EB2F2D100205B
:1018A00051490870012C4AD187224FF4D571082084
:1018B00000F07DF9012847D1002506E0FF2000F067
:1018C0002DF90DF80500681C85B2042DF6DB9DF896
:1018D0000200012879D19DF80300AA2875D14FF69E
:1018E000FE7600BF01220021372000F060F90122BE
:1018F0009107292000F05BF9044624B13000A6F1DD
:1019000001018EB2EED1002E5FD0012200213A20DB
:1019100000F04DF9002858D1002506E0FF2000F026
:10192000FDF80DF80500681C85B2042DF6DB9DF866
:10193000000000F0400018B106202B49087044E078
:1019400004202949087040E001220021372000F0DE
:101950002EF901220021292000F029F90446012C4A
:1019600017DC0220204908704FF6FE7600BF0122E6
:101970000021372000F01BF901220021292000F06E
:1019800016F90446BCB13000A6F101018EB2EED1C9
:1019900011E00120144908704FF6FE7600BF0122C5
:1019A0000021104600F003F9044624B13000A6F1EE
:1019B00001018EB2F3D12EB101225102102000F0AC
:1019C000F6F810B1002008490870FFF7DDFE00F0BE
:1019D000ABF80548007808B10020F8BD0CB12046EE
:1019E000FBE7AA20F9E70000200000202DE9F041E4
:1019F00006460F46154619480078062800D07F0293
:101A0000012D0CD101223946112000F0D0F80446F6
:101A1000FCB96902304600F023F8044619E00122BF
:101A20003946122000F0C3F8044600BF4FF400719D
:101A3000304600F015F8044606F50076681EC0B280
:101A4000050001D0002CF1D0012200210C2000F073
:101A5000AEF8FFF799FE2046BDE8F0812000002097
:101A600070B504460D46FE20FFF7ADFE08B101201B
:101A700070BD04E0FF2000F075F92070641C2800A0
:101A8000A5F101018DB2F5D1FF2000F047F8FF204C
:101A900000F044F80020EBE708B501214FF4C470D2
:101AA000FFF7F8FD4FF48050ADF8000010208DF8DE
:101AB000030003208DF8020069461448FFF763FA1B
:101AC0004FF480511148FFF7E9FA4FF40070ADF878
:101AD000000069460E48FFF756FA4FF400710C48B3
:101AE000FFF7DCFA4FF4C040ADF800006946094842
:101AF000FFF749FA4FF400510648FFF7CFFA00F01C
:101B0000EBF801200449086008BD0000000C01400A
:101B1000001C014000200140B801244210B50446D9
:101B2000204600F01FF910BD10B5002000F036F976
:101B300010BD10B5382000F031F910BD10B50020EF
:101B40000549086000F06FF808B9002010BDFFF7E4
:101B50001BFE0120FAE70000B801244270B50646DA
:101B60000D4600F060F808B1012070BD2846FFF76F
:101B7000D5FFFD2D19D0002404E0305D00F0F2F80F
:101B8000601C84B2B4F5007FF7DBFF20FFF7C6FFCF
:101B9000FF20FFF7C3FFFF20FFF7C0FF044604F05C
:101BA0001F00052801D00220DFE70020DDE72DE936
:101BB000F04105460C4617464FF00008FFF7E4FDDC
:101BC000FFF7BCFF10B1FF20BDE8F08145F04000F9
:101BD000FFF7A4FF200EFFF7A1FFC4F30740FFF7B4
:101BE0009DFFC4F30720FFF799FFE0B2FFF796FFD0
:101BF0003846FFF793FF0C2D02D1FF20FFF78EFF31
:101C00004FF01F0800BFFF20FFF788FF064606F0D1
:101C1000800030B15FEA0800A8F1010101F0FF087F
:101C2000F1D13046D0E710B5002400BFFF20FFF708
:101C300075FFFF2801D1002010BD641C6FF07F40AC
:101C40008442F3D30120F7E72DE9F04106460F4621
:101C5000154620480078062800D07F02012D0CD1BF
:101C6000012239461820FFF7A2FF04466CBBFE2173
:101C70003046FFF773FF044627E016480078012836
:101C800009D0012200213720FFF791FF01222946C8
:101C90001720FFF78CFF012239461920FFF787FF35
:101CA000044694B900BFFC213046FFF757FF0446B5
:101CB00006F50076681EC0B2050001D0002CF2D0F7
:101CC000FD210020FFF74AFF0446FFF75DFD204697
:101CD000BDE8F0812000002000B587B00121082078
:101CE000FFF7D8FC01218803FFF7C4FC4FF46040E4
:101CF000ADF8180018208DF81B0003208DF81A008D
:101D000006A91648FFF73FF90020ADF804004FF48C
:101D10008270ADF806000020ADF808000220ADF892
:101D20000A000120ADF80C004002ADF80E0038208A
:101D3000ADF810000020ADF812000720ADF8140037
:101D400001A9074800F058F80121054800F03AF8C9
:101D5000FF2000F007F807B000BD0000000C0140B4
:101D60000038004010B5044600BF02210A4800F0C8
:101D700035F80028F9D02146074800F03BF800BFAD
:101D80000121054800F02AF80028F9D0024800F0A7
:101D90002EF8C0B210BD00000038004010B5044657
:101DA000074800884FF6C771084005490880084673
:101DB0000088204308800121014800F003F810BD8D
:101DC0000038004021B1028842F04002028004E065
:101DD00002884FF6BF731A40028070470246002007
:101DE00013890B400BB1012000E000207047014631
:101DF000888970478181704710B50022028802F4FB
:101E000041520B884C8823438C882343CC8823433E
:101E10000C8923434C8923438C892343CC89234356
:101E20001A430280838B4FF2FF74234083830B8A13
:101E3000038210BD704710B500F002F810BD00001D
:101E40000CB50020019000903348006840F48030C9
:101E50003149086000BF3048006800F4003000904D
:101E60000198401C0190009818B90198B0F5A06F36
:101E7000F1D12948006800F4003010B10120009031
:101E800001E0002000900098012843D12348006819
:101E900040F01000214908600846006820F0030067
:101EA00008600846006840F0020008601A48406870
:101EB000194948600846406848600846406840F450
:101EC000806048600846406820F47C1048600846FE
:101ED000406840F4E81048600846006840F08070B0
:101EE000086000BF0C48006800F000700028F9D0BE
:101EF0000948406820F003000749486008464068E8
:101F000040F00200486000BF0348406800F00C0049
:101F10000828F9D10CBD000000100240002002404A
:101F2000042808D14FF0E021096941F004014FF085
:101F3000E022116107E04FF0E021096921F004017E
:101F40004FF0E022116170477047000010B5044661
:101F50006FF00400FFF7E4FFE11704EB5171C1F3E8
:101F6000C701074A11701046007800EB4001C1EB31
:101F7000C0104FF6FF7101EAC0000249088010BD91
:101F8000260000202800002010B51348006840F00B
:101F900001001149086008464068104908400E4990
:101FA0004860084600680E4908400B49086008462A
:101FB000006820F4802008600846406820F4FE0095
:101FC00048604FF41F008860FFF735FF4FF0006056
:101FD0000449086010BD0000001002400000FFF836
:101FE000FFFFF6FE08ED00E000B59DB001210802FC
:101FF000FFF730FB01200790002008900F20099088
:1020000000200A900B900C900D90009001900320FE
:1020100002900020039004900590069006200E90F8
:1020200000200F901090102011900020129014901A
:102030001390159016904FF4805017900020189030
:102040004FF48040199000201A9007A81B90CDF8FB
:1020500070D00EA8FEF724FF01210620FEF706FF30
:102060001DB000BD08B501214FF4B070FFF712FBA1
:102070004CF23370ADF8000018208DF803000320F7
:102080008DF8020069461048FEF77DFF4FF680701C
:10209000ADF8000018208DF8030003208DF8020031
:1020A00069460A48FEF76FFF41F20100ADF80000F3
:1020B00018208DF8030003208DF8020069460448BB
:1020C000FEF761FF08BD0000001401400018014048
:1020D0000020014010B5FFF7C5FFFFF785FF322054
:1020E00000F0C4FE0020FFF741FAFFF7A3F8B24961
:1020F000888008468188B1A000F0CCFA0020FFF764
:1021000035FA0020FFF732FA0A2000F0AFFE002077
:10211000FFF72CFA0020FFF729FA0020FFF726FA34
:102120000020FFF723FA0020FFF720FA0020FFF736
:102130001DFA0020FFF71AFA0020FFF717FA0A200D
:1021400000F094FE4FF48060FFF710FA4FF4C440A3
:10215000FFF712FA0820FFF709FA40F60800FFF728
:102160000BFA4FF44070FFF701FA0520FFF704FA6D
:1021700040F20130FFF7FAF944F60640FFF7FCF9A8
:1021800040F20230FFF7F2F940F20260FFF7F4F993
:1021900040F20330FFF7EAF940F20C50FFF7ECF998
:1021A0004FF44170FFF7E2F94FF44C50FFF7E4F9B8
:1021B00040F20530FFF7DAF940F60540FFF7DCF9A9
:1021C00040F20630FFF7D2F944F20620FFF7D4F9C7
:1021D00040F20730FFF7CAF940F20C60FFF7CCF984
:1021E0004FF44270FFF7C2F94FF4A060FFF7C4F953
:1021F00040F20930FFF7BAF93320FFF7BDF910209C
:10220000FFF7B4F91420FFF7B7F91120FFF7AEF983
:1022100040F20110FFF7B0F91220FFF7A7F90020F4
:10222000FFF7AAF91320FFF7A1F90120FFF7A4F99E
:102230004FF48070FFF79AF94FF44C70FFF79CF958
:1022400040F20110FFF792F940F24720FFF794F9AE
:1022500040F20310FFF78AF94FF48050FFF78CF932
:102260004FF42070FFF782F94FF45E40FFF784F9D6
:102270004FF48170FFF77AF94DF2B010FFF77CF957
:102280000A2000F0F3FD0120FFF770F94FF4807091
:10229000FFF772F90220FFF769F94FF48070FFF73A
:1022A0006BF90320FFF762F941F23000FFF764F9A0
:1022B0000920FFF75BF90120FFF75EF90C20FFF71B
:1022C00055F90020FFF758F99020FFF74FF94FF428
:1022D0000040FFF751F90F20FFF748F90020FFF702
:1022E0004BF94FF40470FFF741F90020FFF744F970
:1022F00040F21120FFF73AF9EF20FFF73DF940F2E5
:102300001220FFF733F90020FFF736F940F21320CF
:10231000FFF72CF940F28F10FFF72EF94FF4A06071
:10232000FFF724F90020FFF727F940F20150FFF7EB
:102330001DF90020FFF720F940F20250FFF716F9CF
:102340005F20FFF719F940F20140FFF70FF9012074
:10235000FFF712F940F20440FFF708F90020FFF7F9
:102360000BF90A2000F082FD0720FFF7FFF84FF479
:102370008070FFF701F90A2000F078FD4FF400703B
:10238000FFF7F4F80020FFF7F7F840F20120FFF71D
:10239000EDF80020FFF7F0F80A2000F067FD40F2AA
:1023A0000220FFF7E3F80020FEF712FF4FF6FF7060
:1023B000FEF7EAFE10BD000018000020204C434448
:1023C0002049443A25780D0A0000000010B540F27B
:1023D00025510C4800F096F870B10A4800F04EF90B
:1023E000C4B22146074800F04EF900BF402105481D
:1023F00000F07BF80128F9D14021024800F060F894
:1024000010BD00000038014010B586B0044601211F
:102410000420FFF73FF901218803FFF73BF9012171
:102420000846FFF737F94FF40070ADF814000320A9
:102430008DF8160018208DF8170005A91E48FEF724
:10244000A2FD4FF48060ADF8140004208DF8170051
:1024500005A91948FEF797FD01940020ADF8080082
:10246000ADF80A00ADF80C00ADF810000C20ADF886
:102470000E0001A9114800F095F801210F4800F065
:1024800028F840210D4800F01BF8012240F22551A8
:102490000A4800F061F825208DF8000003208DF82F
:1024A00001008DF8020001208DF803006846FFF757
:1024B0008DF806B010BD0000000801400038014052
:1024C00001F40072B2F5007F00D100BFCA43028060
:1024D000704721B1828942F40052828104E08289EE
:1024E0004DF6FF731A408281704702460020B1F515
:1024F000007F00D100BF13880B400BB1012000E02A
:102500000020704770B502460024002300250020FB
:1025100040F66A16B14200D100BFC1F3421501F086
:102520001F03012606FA03F3012D02D196893340D9
:1025300006E0022D02D1168A334001E0968A33402C
:102540000C12012606FA04F41688344013B10CB1BB
:10255000012000E0002070BDF0B5034600240026F5
:102560000025002040F66A17B94200D100BF184686
:10257000C1F3421401F01F06012707FA06F5012CEA
:1025800001D10C3004E0022C01D1103000E01430F5
:102590001AB107682F43076002E00768AF4307607E
:1025A000F0BD00002DE9F04786B005460E46002438
:1025B000A24600BFA1460027B08900B100BF2F4648
:1025C0002C8A4CF6FF700440F08804432C82AC89BE
:1025D0004EF6F3100440B0883189084371890843EE
:1025E0000443AC81AC8A4FF6FF400440B0890443F9
:1025F000AC8201A8FFF75EF81F48874202D1DDF8E0
:1026000010A001E0DDF80CA0A88900F4004040B162
:102610000AEBCA0000EB0A1031684900B0FBF1F880
:1026200007E00AEBCA0000EB0A1031688900B0FB32
:10263000F1F86420B8FBF0F004012009642101FBEB
:102640001089A88900F4004040B1322000EBC90095
:10265000B0FBF1F000F00700044308E0322000EB8B
:1026600009106421B0FBF1F000F00F0004432C814D
:1026700006B0BDE8F08700000038014001468888B8
:10268000C0F308007047C1F308028280704700BFA2
:10269000FEE700000FB4054B10B503A9044A0298E9
:1026A00000F018F810BC5DF814FB0000854100082C
:1026B0006000002002E008C8121F08C1002AFAD1F9
:1026C00070477047002001E001C1121F002AFBD1B2
:1026D000704700002DE9FF4F8DB09B460F46044622
:1026E000002606E025280BD05A460F999047641C17
:1026F000761C20780028F5D111B03046BDE8F08F67
:102700000025A8460122984900E0054314F8013F3E
:10271000203B02FA03F00842F7D120782E2817D187
:1027200014F8010F45F004052A280ED06FF02F028F
:102730002078A0F1300109290AD808EB880102EBC2
:10274000410100EB0108641CF2E757F8048B641C9C
:1027500020786C280DD004DC4C2812D06A2811D1C6
:1027600004E074280DD07A280CD10AE045F4001555
:1027700007E0617845F48015814202D1641C05F5BB
:102780008015641C2278692A45D008DC002AB3D061
:10279000582A69D0632A10D0642A08D13BE0702AF5
:1027A00067D0732A13D0752A5CD0782A5CD0104683
:1027B0005A460F999047761CD3E017F8040B8DF812
:1027C000000000208DF80100E946012003E057F8E1
:1027D000049B4FF0FF3069074FF0000501D40AE079
:1027E0006D1C45450DDA8542FADB19F80510002904
:1027F000F6D106E06D1C8542FCDB19F805100029B6
:10280000F8D12E4404E019F8010B5A460F9990476D
:102810006D1EF8D2A5E00A200021CDE90801C5F31C
:10282000025002280DD001CFC117031E71F1000321
:102830000DDA4FF0000CD0EB0C006CEB01012D23F6
:1028400008E0FF1D27F00707F7E80201EDE72B0579
:1028500004D52B238DF8283001233BE0EB0739D03A
:102860002023F7E70A2000E010200021CDE908012D
:1028700007E01020002145F00405CDE908014FF0E4
:102880000808C5F3025002280FD001CF00214FF0F5
:10289000000A2B071FD5702A0DD0DDE908C38CF084
:1028A000100C5CEA030C0CD015E0FF1D27F00707A5
:1028B000F7E80201EBE740228DF828204FF0010AEB
:1028C0000BE050EA010306D030238DF828308DF854
:1028D000292002239A46582A04D024A20DF1200967
:1028E0000B9209E026A2F9E7DDE90823FDF798FD40
:1028F0000B9B9B5C09F8013D50EA0102F4D1ADEB62
:10290000090020300890680701D44FF001080899A9
:10291000884502DDA8EB010000E00020804600258C
:1029200006E00AA85A46405D0F9990476D1C761C38
:102930005545F6DB04E030205A460F999047761C47
:10294000B8F10001A8F10108F5DC05E019F8010B68
:102950005A460F999047761C0899481E08900029FE
:10296000F4DC641CC5E60000092801003031323374
:1029700034353637383961626364656600000000BB
:1029800030313233343536373839414243444546A5
:102990000000000070B504460D4600202071401E66
:1029A000E0622946204601F0A5FF08B1032070BD72
:1029B00094F82E1294F82F0241EA00204AF655218D
:1029C000884201D00220F2E794F86900010694F8E9
:1029D000680041EA004194F8670041EA002094F859
:1029E0006610084320F07F400D49884201D1002045
:1029F000DDE794F88500010694F8840041EA00417F
:102A000094F8830041EA002094F88210084320F0F3
:102A10007F400349884201D10020C8E70120C6E772
:102A200046415400024600E0521C107810B1107864
:102A30008842F9D11078704770B503460D46586A40
:102A4000021D680A1E68B678B0FBF6F400BF02CA21
:102A500009B9002070BD8C4200D202E0641A121D38
:102A6000F5E700BF10682044F4E70246891E50696C
:102A7000801E884201D8002070479378906A01FB3D
:102A80000300F9E72DE9F04780460C46A17EE07E81
:102A900041EA002010B10020BDE8F087207800F066
:102AA0003F00401E00EB800101EBC0064FF0010922
:102AB000002524E01A48405D205C1949495D214405
:102AC000497840EA0127B9F1000F11D0FF2E0BD24F
:102AD000384601F0D7F882463146761C38F81100A6
:102AE00001F0D0F8824501D00020D5E7B94605E0D5
:102AF0004FF6FF70874201D00020CDE76D1C0D2DF1
:102B0000D8D3207800F0400038B1B9F1000F04D0DC
:102B100038F8160008B10020BEE70120BCE700002D
:102B2000E44E00082DE9F04704468946B9F1000F4C
:102B300006D1E76817B16069B84215D8012713E0DC
:102B40004946204601F096FB0646022E02D201209D
:102B5000BDE8F087701C08B93046F9E76069B042FB
:102B600001D93046F4E74F463D4600BF6D1C606911
:102B7000A84204D80225BD4201D90020E8E7294631
:102B8000204601F077FB064606B909E0701C08B143
:102B9000012E01D13046DBE7BD42E7D10020D7E767
:102BA00000BF6FF070422946204601F0F9FF8046D1
:102BB000B8F1000F08D1B9F1000F05D02A464946F7
:102BC000204601F0EDFF8046B8F1000F0BD1E56023
:102BD0002069401C78B12069401E2061607940F076
:102BE0000100607107E0B8F1010F02D14FF0FF3032
:102BF00000E0012005462846AAE700002DE9F34F32
:102C000083B0814604980068019002E00198401C5E
:102C10000190019800782F28F8D0019800785C285E
:102C2000F4D0D9F81CA000252F4600BF38467F1CE1
:102C300001990C5C202C03DB2F2C01D05C2C00D1E3
:102C400032E0FF2D03D3062005B0BDE8F08FE4B2DB
:102C5000812C13DBE0B2FE2810DC38467F1C019982
:102C60000E5C06EB042084B2402E01DB7E2E05DDD7
:102C7000802E01DBFE2E01DD0620E5E70121204646
:102C800000F0B4FF04460CB90620DDE7802C06DA1C
:102C9000214671A0FFF7C6FE08B10620D4E72846FA
:102CA0006D1C2AF81040C1E700BF0198C1190498B3
:102CB0000160202C01DA042000E00020804608E0BA
:102CC000681E3AF81040202C02D02E2C00D002E0D2
:102CD0006D1E002DF4D100BF0DB90620B4E7002011
:102CE0002AF815000B222021D9F8180001F0F8FD70
:102CF000002700E07F1C3AF817002028FAD03AF8A5
:102D000017002E28F6D00FB148F0030800E06D1E22
:102D100025B1681E3AF810002E28F8D1002006468A
:102D200002904FF0080B00BF38467F1C3AF8104065
:102D300004B963E0202C03D02E2C04D1AF4202D082
:102D400048F00308F0E70298584501D2AF4214D189
:102D5000BBF10B0F02D148F003084FE0AF4201D0A6
:102D600048F00308AF4200D948E02F4608200290FF
:102D70004FF00B0BB006060ED6E7802C09DB204681
:102D800000F080FF0021009000F030FF044648F082
:102D90000208FF2C11DDABF101000299884204D832
:102DA00048F00308CDF808B0BEE72212D9F8183071
:102DB0000298411C02911A5419E024B1214629A01D
:102DC000FFF730FE18B15F2448F003080FE0412CF4
:102DD00004DB5A2C02DC46F0020608E0612C06DB1C
:102DE0007A2C04DC46F00106A4F1200084B2D9F864
:102DF00018300298411C02911C5495E700BFD9F885
:102E000018000078E52803D10520D9F818100870BB
:102E1000BBF1080F01D1B006060E06F00C000C281D
:102E200003D006F00300032801D148F0020808F09F
:102E3000020058B906F00300012801D148F010083B
:102E400006F00C00042801D148F00808D9F8180051
:102E500080F80B800020F7E6222A3A3C3E3F7C7F38
:102E6000000000002B2C3B3D5B5D00000146114A39
:102E700012884A434FF0E0235A6100229A611A46B1
:102E8000126942F001021A6100BF4FF0E02210699E
:102E900000F001021AB100F48032002AF5D04FF0A0
:102EA000E022126922F001024FF0E0231A610022B1
:102EB0009A617047280000202DE9F04104460E4633
:102EC0000021204600F01AFA0546EDB9002700BFA0
:102ED0002169206801F00EFD054605B113E0606927
:102EE0000078E52802D06069007820B9781C074690
:102EF000B04201D107E000270121204600F07FF811
:102F00000546002DE4D000BF042D00D1072528463A
:102F1000BDE8F0812DE9F04704460021204600F08D
:102F2000EDF9074617B13846BDE8F0874FF0FF09C5
:102F3000CA464FF6FF70208400BF2169206801F067
:102F4000D9FC074607B157E065692E780EB904270A
:102F500052E0E87A00F03F08E52E05D008F00800BE
:102F600040B1B8F10F0F05D04FF0FF094FF6FF70D9
:102F700020843AE0B8F10F0F1CD1E06978B306F075
:102F8000400030B195F80DA026F04006B146E0882B
:102F900020844E450AD1687B504507D12946E06917
:102FA000FFF770FD10B1A9F1010000E0FF2000F073
:102FB000FF091AE0B9F1000F05D1284601F0CFFE54
:102FC000504500D118E0A069C07A00F0010038B97E
:102FD0000B222846A16901F063FC08B90CE004E06B
:102FE0004FF0FF094FF6FF7020840021204600F0CB
:102FF00006F80746002FA0D000BF384694E72DE919
:10300000F04104468846E088461CB0B208B1206909
:1030100010B90420BDE8F08106F00F0000286BD144
:103020002069401C2061E06828B920680089B0420E
:1030300062D80420EEE720688078401E00EA16106F
:10304000002859D1E168206801F014F90546012DE6
:1030500001D80220DEE7681C08B90120DAE7206801
:103060004069A84242D8B8F1000F01D10420D1E74D
:10307000E1682068FFF756FD05460DB90720C9E74E
:10308000012D01D10220C5E7681C08B90120C1E764
:10309000206801F0D8FE08B10120BBE7216801F1EA
:1030A00030004FF40072002101F01AFC294620681C
:1030B000FFF7DBFC2168C86200270EE001202168D1
:1030C0000871206801F0BFFE08B10120A2E7206866
:1030D000C06A401C2168C8627F1C20688078B842A2
:1030E000ECD82068C06AC01B2168C862E560294628
:1030F0002068FFF7BAFC2061E6802068303006F0D7
:103100000F0100EB41106061002083E72DE9F05FC3
:1031100004468A464FF0FF09CB4604274FE0216959
:10312000206801F0E7FB074607B14BE06669357898
:103130000DB9042746E0F07A00F03F08E52D0AD0EB
:103140002E2D08D028F02000082801D1012000E011
:103150000020504502D04FF0FF0929E0B8F10F0FD1
:103160001AD105F0400030B196F80DB025F04005B9
:10317000A946E08820844D450AD1707B584507D187
:103180003146E06901F0CCFC10B1A9F1010000E08A
:10319000FF2000F0FF090BE0B9F1000F04D1304629
:1031A00001F0DDFD584502D04FF6FF70208409E0A4
:1031B00000212046FFF723FF074607B102E0206900
:1031C0000028ACD100BF0FB1002020613846BDE817
:1031D000F09F2DE9FE4F0446D4F81880D4F81C90D7
:1031E0000C224146684601F06EFB00BF9DF80B00C3
:1031F00000F0010020B3002088F80B00E0610126F8
:103200000CE033464A466946404600F0CDFF204672
:10321000FFF780FE054605B102E0761C642EF0D370
:1032200000BF642E02D10720BDE8FE8F042D01D01F
:103230002846F9E79DF80B0088F80B00C4F81C90AD
:103240009DF80B0000F0020060B1002600E0761C43
:1032500039F816000028FAD106F119000D21B0FB4B
:10326000F1F700E0012739462046FFF725FE054625
:1032700045BB781E070025D0E088C11B204600F022
:103280003DF80546F5B9A06901F069FD824600BF29
:103290002169206801F02EFB054605B111E0FAB264
:1032A00053466169E06900F0E5FE0120216808717C
:1032B00000212046FFF7A3FE054615B9781E07003A
:1032C000E6D100BFC5B92169206801F013FB0546AE
:1032D00095B920220021606901F002FB0B22D4E99C
:1032E000050101F0F0FAA069C07A00F018006169E8
:1032F0000873012021680871284695E72DE9F041FF
:1033000004460E46E680A568012D03D0206840697A
:10331000A84202D80220BDE8F0812DB920680078CB
:10332000032801D12068456A45B920680089B04268
:1033300001D80220EFE72068476A1EE02068807805
:103340004FEA001812E02946206800F093FF054676
:10335000681C08B90120DEE7022D03D3206840690C
:10336000A84201D80220D6E7A6EB08064645EAD2D5
:1033700029462068FFF779FB0746E5600FB9022070
:10338000C9E707EB161020612068303006F00F0106
:1033900000EB411060610020BDE7000070B50546FC
:1033A00025B1012D06D0022D0CD10AE0FEF75AFA04
:1033B000044609E0FDF71AFB4FF440500549088028
:1033C00002E001E0012400BF00BF0CB1012070BD8C
:1033D0000020FCE7480000202DE9F04107460E469A
:1033E000144627B1012F1ED0022F39D137E036B154
:1033F000012E0FD0022E04D0032E10D106E000259E
:103400000FE04FF40070206000250AE008202080C3
:10341000002506E0FEF7EAF92060002501E004251A
:1034200000BF00BF00BF36B1012E0FD0022E04D066
:10343000032E10D106E000250FE04FF4007020802D
:1034400000250AE008202080002506E006480088C4
:103450002060002501E0042500BF00BF00BF00BFC1
:1034600000BF2846BDE8F081480000202DE9F0416A
:1034700080460F4616461C4614B90420BDE8F0816C
:10348000B8F1000F06D0B8F1010F15D0B8F1020F56
:1034900022D120E0E2B231463846FEF7A7FA0546CF
:1034A00007E0FEF7DFF9E2B231463846FEF79EFA52
:1034B0000546002DF5D111E009E071024FF40072CC
:1034C0003846FDF7EBFA761C07F50077641E002CF2
:1034D000F3D1002502E001E0012500BF00BF0DB9D6
:1034E0000020CBE70120C9E7014621B1012904D022
:1034F000022906D103E0104670471046FCE710464B
:10350000FAE70120F8E72DE9F04180460F4616461C
:103510001C4614B90420BDE8F081B8F1000F06D0B4
:10352000B8F1010F15D0B8F1020F22D120E0E2B2BC
:1035300031463846FEF788FB054607E0FEF792F96C
:10354000E2B231463846FEF77FFB0546002DF5D145
:103550000FE009E071024FF400723846FDF70AFBF4
:10356000761C07F50077641E002CF3D1002500E0DF
:1035700000BF00BF0DB90020CDE70120CBE770B53B
:103580000546284600F0DAFA044634B9284601F028
:1035900083FC04460CB900202860204670BD2DE94C
:1035A000F74F82B08A46002202A9049800F098FBE7
:1035B000019004980468019800286DD1D4E90410A2
:1035C000801E814203D82069CAF8000064E094F8A4
:1035D00000B00026BBF1010F1CD1022700BF394605
:1035E000204600F047FE804608F1010010B9012096
:1035F00001900EE0B8F1010F02D10220019008E025
:10360000B8F1000F00D1761C781C0746616988422A
:10361000E5D33AE06769206A00904FF00009002581
:1036200000BFB9F1000F0ED10098421C01462046A0
:10363000009201F05FF90190019800B124E004F1DB
:1036400030054FF40079BBF1020F09D12878697871
:1036500040EA012000B9761CAD1CA9F1020910E076
:10366000E8780006A97840EA0140697840EA01203C
:103670002978084320F0704000B9761C2D1DA9F16F
:103680000409781E0700CCD100BF2661607940F0A4
:1036900001006071CAF80060019805B0BDE8F08FC4
:1036A000F7B582B016460398019001A800F0E5FE38
:1036B0000546002D02DA0B2005B0F0BD0E4850F88B
:1036C00025400CB100202070029810B10020029912
:1036D00008700949029841F82500029808B1012EA6
:1036E00001D00020E8E7002203A902A800F0F8FAC0
:1036F00007463846E0E70000E0C600202DE9F7471E
:103700008DB0054616461DB9092010B0BDE8F087FA
:103710000020286006F01F0626F001020EA904A86A
:1037200000F0DEFA0746002F77D14FF4007000F06A
:103730009BFA8146B9F1000F01D11120E5E7CDF8E0
:103740002C9001A80A9004A80E9900F0D3FC07461B
:10375000099C0FB904B9062706F01C0000285DD0AB
:103760004FB1042F03D104A8FFF733FD074646F0FD
:103770000806099C09E0E07A00F0110008B107276B
:1037800003E006F0040000B10827002F55D106F031
:103790000800002851D000F0E6FD804684F80E8035
:1037A0004FEA1821E1734FEA184121744FEA18617A
:1037B000617484F816804FEA1821E1754FEA1841C8
:1037C00021764FEA186161760020E07220770021AF
:1037D0006177A177E1772146049800F073FE824675
:1037E0000021204601F0B3FA012004990871BAF1D2
:1037F000000F22D00498D0F82C805146049801F094
:1038000070FA0746CFB9AAF101000499C860414691
:10381000049801F06FF807460FE038E06FB9E07ADE
:1038200000F0100008B1042707E006F0020020B104
:10383000E07A00F0010000B1072747B906F0080060
:1038400008B146F020060498C06AE8612C62484638
:1038500000F011FADFB9AE710020E871214604983A
:1038600000F030FE2861E07F0106A07F41EA0041C0
:10387000607F41EA0020217F0843E8600020A860C3
:10388000A8616862049828602868C088A8803846C3
:103890003BE773B584B0044614B9092006B070BD87
:1038A000002205A903A800F01BFA0546002D2FD120
:1038B000039820604FF4007000F0D6F906460EB968
:1038C0001120EBE7E661C4F818D02046059900F016
:1038D00011FC0546304600F0CEF9B5B9606958B123
:1038E0006069C07A00F0100028B16169039800F0A7
:1038F000E9FDA06000E005253DB90398C088A080DF
:1039000000212046FFF7FAFC0546042D00D10525CD
:103910000DB1002020602846C0E72DE9FF4F83B09D
:10392000044615469A46DDF810B00020CAF800009B
:10393000204601F0B1FA0290029818B1029807B03F
:10394000BDE8F08FE07908B1E079F8E7A07900F000
:10395000010008B90720F2E7D4E90210401A0090EC
:103960000098854200D9009DAAE02089C0F3080094
:10397000002876D120688078401EA16800EA512096
:1039800000F0FF09B9F1000F1FD1A06810B920693C
:1039900001900CE0606A28B12046A168FFF74CF85E
:1039A000019004E06169206800F064FC01900198D6
:1039B000022802D20220E071C1E70198401C10B930
:1039C0000120E071BBE70198606161692068FFF741
:1039D0004CF8064616B90220E071B0E74E444FEAB3
:1039E0005528B8F1000F29D009EB08002168897823
:1039F000884203D920688078A0EB090821684878BC
:103A0000434632465946FFF731FD10B10120E071BF
:103A100095E7A07900F0400068B1A069801B40459F
:103A200009D2A169891B0BEB41204FF4007204F10C
:103A3000280100F048FF4FEA482737E0A069B0426C
:103A400020D0A07900F0400080B12168487801239F
:103A500004F12801A269FFF756FD18B10120E071B9
:103A60006DE710E0A07920F04000A071216848784F
:103A70000123324604F12801FFF7F8FC10B10120C0
:103A8000E0715CE7A6612089C0F30800C0F500770B
:103A9000AF4200D92F462089C0F3080204F1280064
:103AA00011183A46584600F00EFF00BFBB44A0680C
:103AB0003844A060DAF800003844CAF80000ED1B72
:103AC000002D7FF452AF002039E7FEB504460F46C3
:103AD000204601F0E1F90546002D2DD12FB9002136
:103AE0002046FFF70BFC054626E04FF4007000F07F
:103AF000BBF806460EB91120FEBDE661C4F818D029
:103B000000212046FFF702FB0546042D02D10020CC
:103B1000206100256DB93946204600F026FC0021C1
:103B20002046FFF76CFA0546042D02D100202061E3
:103B30000025304600F09FF82846DDE72DE9F041EA
:103B40000446204601F0A8F90746002F4CD1A07981
:103B500000F02000002847D0A07900F0400078B1A4
:103B600021684878012304F12801A269FFF7CBFC02
:103B700010B10120BDE8F081A07920F04000A071D3
:103B8000E169206800F0B6FE0746002F2CD1256AB7
:103B9000E87A40F02000E872207B2877A089010AAB
:103BA0006977E068010CA977E068010EE97728469B
:103BB000216901F0CCF800F0D6FB0646AE75310A5B
:103BC000E975310C2976310E69760020A874002140
:103BD000E974A07920F02000A0710120216808710B
:103BE000206801F0CCF807463846C3E72DE9F041DC
:103BF00002460F46802A01DA10462FE01FB1184B0B
:103C000045F2205602E0174B45F2205600251024BD
:103C100016E0A6EB050C0CEBDC7805EB68014FEA2F
:103C2000410C33F81CC0944500D10BE04FEA410C25
:103C300033F81CC0944501DA0D4600E00E46641EC0
:103C4000002CE6D100BF34B14FF0010C0CEB410C5D
:103C500033F81CC001E04FF0000C6046BDE8F08175
:103C6000A2A301081E4F000810B5044621460020FB
:103C700000F042FF10BD10B504462146002000F0C0
:103C800029FF10BD30B5802807DA612823DB7A28A8
:103C900021DCA0F12005A8B21DE00C2200234FF486
:103CA000F77400BFE51A03EB55010B4D35F81150C1
:103CB000854200D10AE0084D35F81150854201DAFD
:103CC0000B4600E00C46551E2A00EBD100BF12B196
:103CD000024D35F8110030BD26F8020802FC02083A
:103CE0002DE9F74F8AB000210A9801600B9800F087
:103CF000C4FB09900998002803DA0B200DB0BDE839
:103D0000F08FD849099851F820400CB90C20F5E7FC
:103D10000A980460207878B16078FFF7E5FB814667
:103D200009F0010040B90C9820B109F0040008B175
:103D30000A20E3E70020E1E7002020700998607086
:103D40006078FFF72BFB814609F0010008B10320E2
:103D5000D4E70C9820B109F0040008B10A20CDE79F
:103D6000002739462046FEF715FE0546012D01D0F5
:103D70009DBB32E000261AE004F5F77000EB061850
:103D800098F8040070B198F80B00010698F80A0042
:103D900041EA004198F8090041EA002098F808102B
:103DA000084300E0002002A941F82600761C042EFA
:103DB000E2D3002606B1761E00BF02A850F8267096
:103DC00027B139462046FEF7E5FD00E00220054612
:103DD0001DB1701C06460428EFD3032D01D101202C
:103DE0008CE70DB10D2089E73B20015D94F83C0084
:103DF00041EA0020B0F5007F01D00D207EE746208B
:103E0000015D94F8470041EA002ABAF1000F0ED193
:103E100094F85700010694F8560041EA004194F8DE
:103E2000550041EA002094F8541040EA010AC4F811
:103E300018A04020005DE070E078012804D0E07810
:103E4000022801D00D2059E7E0780AFB00FA3D2056
:103E5000005DA070A07818B1A078411E084008B19C
:103E60000D204BE74120015D94F8420041EA00201B
:103E70002081207A00F00F0008B10D203EE743209A
:103E8000015D94F8440041EA00200890089870B958
:103E900094F85300010694F8520041EA004194F866
:103EA000510041EA002094F85010084308903E2049
:103EB000015D94F83F0041EA00200190019808B9A3
:103EC0000D201BE701985044218900EB1110079049
:103ED000DDE90701814201D20D200FE7DDE907107E
:103EE000401AA178B0FBF1FBBBF1000F01D10D200E
:103EF00004E7012540F6F670834500D302254FF60E
:103F0000F670834500D303250BF102006061E76181
:103F100001983844206207983844A062032D16D1D6
:103F2000208908B10D20E9E694F85F00010694F8B5
:103F30005E0041EA004194F85D0041EA002094F8F7
:103F40005C100843606260698000069014E020897C
:103F500008B90D20D2E6206A50446062022D02D1D9
:103F60006069400007E0207D00F00100616901EB1D
:103F7000410100EB51000690A169069800F2FF1084
:103F8000B1EB502F01D20D20B8E64FF0FF30206189
:103F9000E06080206071032D5AD194F8601094F88D
:103FA000610041EA0020012852D1791C204600F02E
:103FB000A1FCE8BB0020607194F82E1294F82F0247
:103FC00041EA00204AF65521884241D13320005D64
:103FD00001063220005D41EA00413120005D41EAE6
:103FE000002094F8301008431F49884230D194F8DB
:103FF0001702010694F8160241EA004194F81502EE
:1040000041EA002094F814120843184988421FD14D
:1040100094F81B02010694F81A0241EA004194F850
:10402000190241EA002094F818120843206100E0C8
:104030000EE094F81F02010694F81E0241EA0041C6
:1040400094F81D0241EA002094F81C120843E06035
:10405000257007480088401C80B205490880E08030
:1040600000204BE6E0C6002052526141727241616D
:104070004A000020F0B504461D464D730F27CF724D
:1040800000270F738F76BC4681F81BC0571E07EBC5
:10409000870C0CEBC706002738463B4600BF4FF69F
:1040A000FF77B84203D03746761C34F81700DFF8A4
:1040B00040C01CF803C001F80C000712DFF830C044
:1040C0001CF803C08C448CF8017008B94FF6FF70DF
:1040D0005F1C3B460D2FE2D34FF6FF77B84202D06C
:1040E00034F816700FB942F040020A70F0BD0000BB
:1040F000E44E00082DE9F3410446019800782F288A
:1041000003D0019800785C2802D10198401C0190EE
:104110000020A06001980078202807D200212046C6
:10412000FFF7ECF805460020606128E000BF01A918
:104130002046FEF763FD054605B11FE02046FEF769
:10414000E9FE0546A069C67A3DB1042D04D100BF41
:1041500006F0040000B9052510E006F0040000B1E7
:104160000CE06769F87A00F0100008B9052505E051
:104170003946206800F0A6F9A060D8E700BF2846BD
:10418000BDE8FC8170B504460D46E1B20548FEF776
:104190007AFA00BF80210348FEF7A7F90028F9D07A
:1041A000204670BD003801402DE9FF4F83B007461F
:1041B00091461E460B223846049900F084FB052EDA
:1041C00019D9B04612E039F802BB00250CE0584678
:1041D00068F35F0080464FEA6B0B08F4803010B143
:1041E000234888EA00086D1C102DF0D3B9F80000B0
:1041F0000028E8D14646072500BF06F00F0000F171
:10420000300ABAF1390F03DD0AF1070000F0FF0AA6
:1042100028466D1E01A901F800A03609002EECD138
:104220007E20485500240BE0385D812807DB385D8F
:10423000FE2804DC681EA04200D106E0641C641C59
:10424000AC4202D2385D2028EED100BF00BF082D5D
:1042500004D228466D1C01A9095C00E020212046FB
:10426000641C3954082CF2D307B0BDE8F08F00006D
:10427000211001002DE9F04705460C46022C02D31F
:104280006869A04202D84FF0010969E04FF0FF3998
:104290002878012804D002282ED003285CD13FE0E2
:1042A000274607EB5707286A00EB5721284600F0FE
:1042B00021FB00B153E038467F1CC0F3080105F133
:1042C000300010F80180286A00EB5721284600F0E2
:1042D00011FB00B143E0C7F3080105F13000405C79
:1042E00048EA002804F0010010B14FEA181001E07C
:1042F000C8F30B00814632E0286A00EB14212846FF
:1043000000F0F8FA00B12AE040F2FF1000EA4401A0
:1043100005F130000E183078717840EA01291EE06E
:10432000286A00EBD411284600F0E4FA00B116E048
:1043300040F2FF1000EA840105F130000E18F07819
:104340000006B17840EA0140717840EA01203178F6
:10435000084320F0704902E04FF0010900BF00BFA0
:104360004846BDE8F087002070472DE9F05F8046A1
:104370000D4605F10907D8F81000002843D0D8F8F9
:104380001440002626E03046761C14F80090B9F15F
:10439000200F00D11EE0B9F1050F01D14FF0E50962
:1043A000092E02D12E2007F8010BB9F1410F0EDBC7
:1043B000B9F15A0F0BDC207B092E01D3102100E04C
:1043C0000821084018B109F1200000F0FF0907F8A2
:1043D000019B00BF0B2ED6D3E07A2872E07F010646
:1043E000A07F41EA0041607F41EA0020217F08432D
:1043F0002860217E607E41EA0020A880A17DE07DCA
:1044000041EA0020E88000203870A86998B30026AF
:10441000AF69D8F8100060B3E86950B3B8F820006D
:104420004FF6FF71884224D0D8F81CB01BE0002161
:104430005046FFF7DBFB8246BAF1000F01D10026A0
:1044400016E0BAF1FF0F04DD4FEA2A223046761C4F
:104450003A54E869401EB04201D8002608E03046D0
:10446000761C07F800A03BF8021B5FEA010ADED1C8
:1044700000BF0020B855BDE8F09F70B502464FF070
:10448000FF301568E5B1116800E0491C0D78202D5A
:1044900002D30D783A2DF8D10D783A2D0FD114684A
:1044A00014F8015BA5F130030A2B07D28C4205D129
:1044B000032B03D218464D1C2946156070BD002001
:1044C00000BFFBE710B502468C7ECB7E44EA03209A
:1044D0001378032B05D10C7D4B7D44EA032340EA7E
:1044E000034010BD8EB00025B9A103C9CDE90C0170
:1044F0004820FDF72BFD4FF4A060FDF79FF8FDF776
:1045000047F84FF41650FDF77FFFFDF7E3FDFCF78A
:10451000C9FDFCF76BFA002000F03CFA4FF478403C
:10452000AD490880ADA20A210846FCF7AFFF04E0C0
:10453000AEA21E210A20FCF7E5FEFDF793F9002844
:10454000F6D1AEA21E210A20FCF7DCFEFCF7F2FB3E
:10455000AE4901220868AEA1FFF7A2F8AB490122DB
:104560004868ACA1FFF79CF804E0ABA232210A2016
:10457000FCF7C8FE6A4601A9ACA0FCF7B5FB002811
:10458000F3D10198800A019042F210710198B0FBBA
:10459000F1F00A21B0FBF1F201FB120030308DF88E
:1045A00008004FF47A710198B0FBF1F00A21B0FBDA
:1045B000F1F201FB120030308DF8090064210198FE
:1045C000B0FBF1F00A21B0FBF1F201FB1200303038
:1045D0008DF80A000198B0FBF1F0B0FBF1F201FB9D
:1045E000120030308DF80B000198B0FBF1F201FBA6
:1045F000120030308DF80C008DA232210A20FCF719
:1046000081FE90A246210A20FCF77CFE02AA4621E8
:10461000B220FCF777FE0098800A009042F21071F9
:104620000098B0FBF1F00A21B0FBF1F201FB12009F
:1046300030308DF808004FF47A710098B0FBF1F03B
:104640000A21B0FBF1F201FB120030308DF80900B5
:1046500064210098B0FBF1F00A21B0FBF1F201FBFC
:10466000120030308DF80A000098B0FBF1F0B0FB7A
:10467000F1F201FB120030308DF80B000098B0FB16
:10468000F1F201FB120030308DF80C0075A26421AC
:104690000A20FCF737FE02AA6421AA20FCF732FEAA
:1046A00077A278210A20FCF72DFE7B490CA8FCF7A5
:1046B00083FB8BE01BE00020FCF718FD0746022F70
:1046C00000D115E008F1010000F0FF08142098FB6C
:1046D000F0F100FB118038B97048006808B901207A
:1046E00000E000206D4908600A20FEF7BFFBE2E70A
:1046F00000BF69E04FF48060FCF738FF4FF4624080
:10470000FCF73AFF35206843634901EB40004078ED
:10471000622854D13520684301EB400080786D2831
:104720004DD13520684301EB4000C078702846D158
:10473000002405E00CA8005D04A90855601CC4B263
:104740000CA8005D0028F5D12F2004A90855601C95
:10475000C4B200260CE0352068434F4901EB40000D
:10476000801D805D04A90855601CC4B2701CC6B2CF
:1047700035206843484901EB4000801D805D0028DA
:10478000E9D100260BE035206843434901EB4000A6
:10479000805D04A90855601CC4B2701CC6B23520E7
:1047A00068433D4901EB4000805D0028EBD104A93E
:1047B000085504A8FBF7B4FF681CC5B205E0681CE7
:1047C000C5B21E2D00DD002594E700BF72E7000092
:1047D000303A2FCDBCC6AC0014000020CDBCC6AC16
:1047E000CFD4CABECAB5D1E900000000534420436B
:1047F000617264204572726F72210000534420433D
:10480000617264204F4B212020202000ECC6002044
:10481000303A0000313A0000534420436172642072
:10482000464154204552524F5221000030000000B2
:104830005344204361726420464154204F4B212051
:10484000200000005344206361726420746F74611F
:104850006C206D656D6F72793A20202020204D42CA
:104860000000000053442063617264206672656535
:10487000206D656D6F72793A20202020204D420016
:104880004B45595F444F574EA3BACFC2D2BBD5C593
:10489000CDBCC6ACA3A10000640000208001224270
:1048A000F0B503461C460D46002000BF1600A2F1DD
:1048B000010207D014F8017B15F801CBA7EB0C0619
:1048C0003000F3D0F0BD70B503460C4603E014F899
:1048D000015B03F8015B1500A2F10102F7D170BD85
:1048E00030B5034601E003F8011B1400A2F10102F8
:1048F000F9D130BD70B504460D460026E06AA842E5
:1049000010D0204600F09FFA06465EB96078012379
:104910002A4604F13001FEF7A9FD10B14FF0FF3532
:104920000126E562304670BD2DE9F04104460E4691
:104930001548005D38B91448183801682046884782
:104940000120BDE8F081114850F82400B04219D987
:104950000F4850F82400B6FBF0F10B48083850F827
:10496000240030F81120002508E00023064808380C
:1049700050F824004F1920F817306D1C9542F4DBD5
:104980000020DEE70220DCE744000020DC4E0008C7
:10499000D44E000810B504460C4951F824104A00C2
:1049A0000B4951F82400002100F08AF8094951F818
:1049B00024200749083951F82400002100F080F82C
:1049C000012103480830015510BD0000CC4E0008FD
:1049D0003C000020DC4E00082DE9F04704460F465D
:1049E0000025A9462348005D20B9224818380168EF
:1049F000204688471FB94FF0FF30BDE8F0871E48BA
:104A000050F82400B7FBF0F61B4850F82400B7FB21
:104A1000F0F100FB117000B1761C184850F824002A
:104A2000451E22E01348083850F8240030F81500DD
:104A300010B909F1010901E04FF00009B14513D1A6
:104A40004FF0000809E00B48083850F8240005EB47
:104A5000080220F8126008F10108B045F3D30648B7
:104A600050F824006843C8E76D1E002DDADA4FF0D5
:104A7000FF30C2E744000020D44E0008CC4E0008AE
:104A800010B501460023002207E00B4850F8210032
:104A900030F8120000B15B1C521C084850F821008D
:104AA0009042F2D864205843044C54F82140B0FBA3
:104AB000F4F0C0B210BD00003C000020CC4E000855
:104AC00030B5034601E003F8011B1400A2F1010216
:104AD000F9D130BD70B505460C4604B970BD054826
:104AE00050F82500261A31462846FFF71DFF00BF63
:104AF000F4E700003400002070B504460E4631464D
:104B00002046FFF769FF0546681C08B9002070BD04
:104B1000024850F824002844F9E70000340000203F
:104B2000F0B504468F7EC87E47EA002008B1002019
:104B3000F0BD087800F03F00401E00EB800707EB57
:104B4000C002012600231AE01448C05C085C134F21
:104B5000FF5C0F447F7840EA07254EB1FF2A01D35E
:104B60000020E5E72E461046521C24F8105005E0C0
:104B70004FF6FF70854201D00020D9E75B1C0D2B5A
:104B8000E2D3087800F0400030B1FF2A01D30020C2
:104B9000CEE7002024F812000120C9E7E44E000807
:104BA0002DE9F04705460E461746022E02D36869E6
:104BB000B04202D84FF0020890E02878012804D0D3
:104BC000022844D003287DD159E0B14609EB5909A8
:104BD000286A00EB59212846FFF78CFE8046B8F181
:104BE000000F00D079E0484609F10109C0F308013F
:104BF00005F130000C1806F0010020B1F9B2207860
:104C000061F31F1000E03846207001202871286AE7
:104C100000EB59212846FFF76DFE8046B8F1000FE2
:104C200000D05AE0C9F3080105F130000C1806F075
:104C3000010010B1C7F3071005E0207800F0F00084
:104C4000C7F30321084320700120287145E0286A3A
:104C500000EB16212846FFF74DFE8046B8F1000F05
:104C600000D03AE040F2FF1000EA460105F13000C2
:104C70000C182770380A6070012028712DE0286A0E
:104C800000EBD6112846FFF735FE8046B8F1000F3D
:104C900000D022E040F2FF1000EA860105F130006A
:104CA0000C18E0780006A17840EA0140617840EAFB
:104CB00001202178084300F0704007432770380A2C
:104CC000607000E006E0380CA070380EE070012043
:104CD000287102E04FF0020800BF00BF4046BDE867
:104CE000F0872DE9F04104460E46022E02D360699A
:104CF000B04201D8022727E0002721E031462046B4
:104D0000FFF7B8FA054605B91DE0012D01D10227CC
:104D100019E0681C08B9012715E000223146204639
:104D2000FFF73EFF074607B10DE02069401C30B198
:104D30002069401C2061607940F0010060712E46BE
:104D40006069B042DAD800BF3846BDE8F0818176AC
:104D50000B0AC3760A0C02750B0E4375704730B50B
:104D6000014600200B2200BF431003EBC01411F8D2
:104D7000015B6319D8B2531E1A00F5D130BD70B56E
:104D80000446204600F05FF80546002D59D12078F2
:104D900003284FD1607901284CD14202002104F14F
:104DA0003000FFF79DFD552184F82E12AA2184F8CA
:104DB0002F12522084F830005221312001556121F8
:104DC00032200155412133200155722184F81412FB
:104DD00084F81512412184F81612612184F8171203
:104DE000217C84F81812208A010A84F8191220699B
:104DF000010C84F81A122069010E84F81B12217B21
:104E000084F81C12A089010A84F81D12E068010CC4
:104E100084F81E12E068010E84F81F12E069401C3D
:104E2000E0626078012304F13001E26AFEF76BFB77
:104E300000206071607800221146FEF7CDFA00B1C3
:104E40000125284670BD2DE9F04104460027207950
:104E5000F8B1E56A607801232A4604F13001FEF7D3
:104E600052FB08B1012714E000202071206A281AA3
:104E7000A16988420DD2E67809E0A069054460780E
:104E800001232A4604F13001FEF73DFB761E022E77
:104E9000F3D23846BDE8F08170B505462C4684B1A2
:104EA000206870B12068007858B12068C088A18857
:104EB000884206D121684878FEF716FB00F0010011
:104EC00008B1092070BD0020FCE7000000050000CB
:104ED00000780000200000002000000000A000007A
:104EE00000000F0001030507090E10121416181C0C
:104EF0001E0000040002000180004000200010009D
:104F000008000400020000000080004000200010A3
:104F10000008004000200010000800040002A40067
:104F2000E8A1A700ECA1A800A7A1B000E3A1B100EF
:104F3000C0A1B700A4A1D700C1A1E000A4A8E100CE
:104F4000A2A8E800A8A8E900A6A8EA00BAA8EC0070
:104F5000ACA8ED00AAA8F200B0A8F300AEA8F70034
:104F6000C2A1F900B4A8FA00B2A8FC00B9A80101D6
:104F7000A1A81301A5A81B01A7A82B01A9A844015A
:104F8000BDA84801BEA84D01ADA86B01B1A8CE01D6
:104F9000A3A8D001ABA8D201AFA8D401B3A8D60171
:104FA000B5A8D801B6A8DA01B7A8DC01B8A85102A3
:104FB000BBA86102C0A8C702A6A1C902A5A1CA02D6
:104FC00040A8CB0241A8D90242A89103A1A692030E
:104FD000A2A69303A3A69403A4A69503A5A696034D
:104FE000A6A69703A7A69803A8A69903A9A69A031D
:104FF000AAA69B03ABA69C03ACA69D03ADA69E03ED
:10500000AEA69F03AFA6A003B0A6A103B1A6A303BB
:10501000B2A6A403B3A6A503B4A6A603B5A6A70388
:10502000B6A6A803B7A6A903B8A6B103C1A6B20342
:10503000C2A6B303C3A6B403C4A6B503C5A6B603EC
:10504000C6A6B703C7A6B803C8A6B903C9A6BA03BC
:10505000CAA6BB03CBA6BC03CCA6BD03CDA6BE038C
:10506000CEA6BF03CFA6C003D0A6C103D1A6C3035B
:10507000D2A6C403D3A6C503D4A6C603D5A6C70328
:10508000D6A6C803D7A6C903D8A60104A7A71004AB
:10509000A1A71104A2A71204A3A71304A4A7140490
:1050A000A5A71504A6A71604A8A71704A9A718045E
:1050B000AAA71904ABA71A04ACA71B04ADA71C042C
:1050C000AEA71D04AFA71E04B0A71F04B1A72004FC
:1050D000B2A72104B3A72204B4A72304B5A72404CC
:1050E000B6A72504B7A72604B8A72704B9A728049C
:1050F000BAA72904BBA72A04BCA72B04BDA72C046C
:10510000BEA72D04BFA72E04C0A72F04C1A730043B
:10511000D1A73104D2A73204D3A73304D4A73404CF
:10512000D5A73504D6A73604D8A73704D9A738049D
:10513000DAA73904DBA73A04DCA73B04DDA73C046B
:10514000DEA73D04DFA73E04E0A73F04E1A740043B
:10515000E2A74104E3A74204E4A74304E5A744040B
:10516000E6A74504E7A74604E8A74704E9A74804DB
:10517000EAA74904EBA74A04ECA74B04EDA74C04AB
:10518000EEA74D04EFA74E04F0A74F04F1A751047A
:10519000D7A710205CA9132043A81420AAA115208A
:1051A00044A81620ACA11820AEA11920AFA11C2044
:1051B000B0A11D20B1A1252045A82620ADA13020F9
:1051C000EBA13220E4A13320E5A1352046A83B2005
:1051D000F9A1AC2080000321E6A1052147A80921FF
:1051E00048A81621EDA1212159A96021F1A2612130
:1051F000F2A26221F3A26321F4A26421F5A2652147
:10520000F6A26621F7A26721F8A26821F9A2692116
:10521000FAA26A21FBA26B21FCA27021A1A271213A
:10522000A2A27221A3A27321A4A27421A5A2752116
:10523000A6A27621A7A27721A8A27821A9A27921E6
:10524000AAA29021FBA19121FCA19221FAA1932174
:10525000FDA1962149A897214AA898214BA89921F8
:105260004CA80822CAA10F22C7A11122C6A115224B
:105270004DA81A22CCA11D22D8A11E22DEA11F22D8
:105280004EA82022CFA123224FA82522CEA127223B
:10529000C4A12822C5A12922C9A12A22C8A12B2242
:1052A000D2A12E22D3A13422E0A13522DFA13622C1
:1052B000C3A13722CBA13D22D7A14822D6A14C229F
:1052C000D5A1522250A86022D9A16122D4A1642282
:1052D000DCA16522DDA1662251A8672252A86E22B8
:1052E000DAA16F22DBA1952292A89922D1A1A52251
:1052F000CDA1BF2253A81223D0A16024D9A261243A
:10530000DAA26224DBA26324DCA26424DDA2652489
:10531000DEA26624DFA26724E0A26824E1A2692459
:10532000E2A27424C5A27524C6A27624C7A277245B
:10533000C8A27824C9A27924CAA27A24CBA27B2449
:10534000CCA27C24CDA27D24CEA27E24CFA27F2419
:10535000D0A28024D1A28124D2A28224D3A28324E9
:10536000D4A28424D5A28524D6A28624D7A28724B9
:10537000D8A28824B1A28924B2A28A24B3A28B2401
:10538000B4A28C24B5A28D24B6A28E24B7A28F24F9
:10539000B8A29024B9A29124BAA29224BBA29324C9
:1053A000BCA29424BDA29524BEA29624BFA2972499
:1053B000C0A29824C1A29924C2A29A24C3A29B2469
:1053C000C4A20025A4A90125A5A90225A6A90325F3
:1053D000A7A90425A8A90525A9A90625AAA90725DD
:1053E000ABA90825ACA90925ADA90A25AEA90B25AD
:1053F000AFA90C25B0A90D25B1A90E25B2A90F257D
:10540000B3A91025B4A91125B5A91225B6A913254C
:10541000B7A91425B8A91525B9A91625BAA917251C
:10542000BBA91825BCA91925BDA91A25BEA91B25EC
:10543000BFA91C25C0A91D25C1A91E25C2A91F25BC
:10544000C3A92025C4A92125C5A92225C6A923258C
:10545000C7A92425C8A92525C9A92625CAA927255C
:10546000CBA92825CCA92925CDA92A25CEA92B252C
:10547000CFA92C25D0A92D25D1A92E25D2A92F25FC
:10548000D3A93025D4A93125D5A93225D6A93325CC
:10549000D7A93425D8A93525D9A93625DAA937259C
:1054A000DBA93825DCA93925DDA93A25DEA93B256C
:1054B000DFA93C25E0A93D25E1A93E25E2A93F253C
:1054C000E3A94025E4A94125E5A94225E6A943250C
:1054D000E7A94425E8A94525E9A94625EAA94725DC
:1054E000EBA94825ECA94925EDA94A25EEA94B25AC
:1054F000EFA9502554A8512555A8522556A8532543
:1055000057A8542558A8552559A856255AA85725AF
:105510005BA858255CA859255DA85A255EA85B257F
:105520005FA85C2560A85D2561A85E2562A85F254F
:1055300063A8602564A8612565A8622566A863251F
:1055400067A8642568A8652569A866256AA86725EF
:105550006BA868256CA869256DA86A256EA86B25BF
:105560006FA86C2570A86D2571A86E2572A86F258F
:1055700073A8702574A8712575A8722576A873255F
:1055800077A8812578A8822579A883257AA88425FB
:105590007BA885257CA886257DA887257EA88825CB
:1055A00080A8892581A88A2582A88B2583A88C2597
:1055B00084A88D2585A88E2586A88F2587A8932564
:1055C00088A8942589A895258AA8A025F6A1A125B3
:1055D000F5A1B225F8A1B325F7A1BC258BA8BD255F
:1055E0008CA8C625F4A1C725F3A1CB25F0A1CE2513
:1055F000F2A1CF25F1A1E2258DA8E3258EA8E4250F
:105600008FA8E52590A80526EFA10626EEA109267C
:1056100091A84026E2A14226E1A10030A1A10130DB
:10562000A2A10230A3A10330A8A10530A9A1063090
:1056300065A9073096A90830B4A10930B5A10A3090
:10564000B6A10B30B7A10C30B8A10D30B9A10E3006
:10565000BAA10F30BBA11030BEA11130BFA11230D2
:1056600093A81330FEA11430B2A11530B3A11630A7
:10567000BCA11730BDA11D3094A81E3095A82130C3
:1056800040A9223041A9233042A9243043A9253022
:1056900044A9263045A9273046A9283047A92930F2
:1056A00048A94130A1A44230A2A44330A3A444306D
:1056B000A4A44530A5A44630A6A44730A7A44830EA
:1056C000A8A44930A9A44A30AAA44B30ABA44C30BA
:1056D000ACA44D30ADA44E30AEA44F30AFA450308A
:1056E000B0A45130B1A45230B2A45330B3A454305A
:1056F000B4A45530B5A45630B6A45730B7A458302A
:10570000B8A45930B9A45A30BAA45B30BBA45C30F9
:10571000BCA45D30BDA45E30BEA45F30BFA46030C9
:10572000C0A46130C1A46230C2A46330C3A4643099
:10573000C4A46530C5A46630C6A46730C7A4683069
:10574000C8A46930C9A46A30CAA46B30CBA46C3039
:10575000CCA46D30CDA46E30CEA46F30CFA4703009
:10576000D0A47130D1A47230D2A47330D3A47430D9
:10577000D4A47530D5A47630D6A47730D7A47830A9
:10578000D8A47930D9A47A30DAA47B30DBA47C3079
:10579000DCA47D30DDA47E30DEA47F30DFA4803049
:1057A000E0A48130E1A48230E2A48330E3A4843019
:1057B000E4A48530E5A48630E6A48730E7A48830E9
:1057C000E8A48930E9A48A30EAA48B30EBA48C30B9
:1057D000ECA48D30EDA48E30EEA48F30EFA4903089
:1057E000F0A49130F1A49230F2A49330F3A49B3052
:1057F00061A99C3062A99D3066A99E3067A9A1303D
:10580000A1A5A230A2A5A330A3A5A430A4A5A5302C
:10581000A5A5A630A6A5A730A7A5A830A8A5A930FC
:10582000A9A5AA30AAA5AB30ABA5AC30ACA5AD30CC
:10583000ADA5AE30AEA5AF30AFA5B030B0A5B1309C
:10584000B1A5B230B2A5B330B3A5B430B4A5B5306C
:10585000B5A5B630B6A5B730B7A5B830B8A5B9303C
:10586000B9A5BA30BAA5BB30BBA5BC30BCA5BD300C
:10587000BDA5BE30BEA5BF30BFA5C030C0A5C130DC
:10588000C1A5C230C2A5C330C3A5C430C4A5C530AC
:10589000C5A5C630C6A5C730C7A5C830C8A5C9307C
:1058A000C9A5CA30CAA5CB30CBA5CC30CCA5CD304C
:1058B000CDA5CE30CEA5CF30CFA5D030D0A5D1301C
:1058C000D1A5D230D2A5D330D3A5D430D4A5D530EC
:1058D000D5A5D630D6A5D730D7A5D830D8A5D930BC
:1058E000D9A5DA30DAA5DB30DBA5DC30DCA5DD308C
:1058F000DDA5DE30DEA5DF30DFA5E030E0A5E1305C
:10590000E1A5E230E2A5E330E3A5E430E4A5E5302B
:10591000E5A5E630E6A5E730E7A5E830E8A5E930FB
:10592000E9A5EA30EAA5EB30EBA5EC30ECA5ED30CB
:10593000EDA5EE30EEA5EF30EFA5F030F0A5F1309B
:10594000F1A5F230F2A5F330F3A5F430F4A5F5306B
:10595000F5A5F630F6A5FC3060A9FD3063A9FE3050
:1059600064A90531C5A80631C6A80731C7A8083102
:10597000C8A80931C9A80A31CAA80B31CBA80C3173
:10598000CCA80D31CDA80E31CEA80F31CFA8103143
:10599000D0A81131D1A81231D2A81331D3A8143113
:1059A000D4A81531D5A81631D6A81731D7A81831E3
:1059B000D8A81931D9A81A31DAA81B31DBA81C31B3
:1059C000DCA81D31DDA81E31DEA81F31DFA8203183
:1059D000E0A82131E1A82231E2A82331E3A8243153
:1059E000E4A82531E5A82631E6A82731E7A8283123
:1059F000E8A82931E9A82032E5A22132E6A2223224
:105A0000E7A22332E8A22432E9A22532EAA2263212
:105A1000EBA22732ECA22832EDA22932EEA23132DB
:105A20005AA9A33249A98E334AA98F334BA99C3373
:105A30004CA99D334DA99E334EA9A1334FA9C43320
:105A400050A9CE3351A9D13352A9D23353A9D5335A
:105A500054A9004EBBD2014EA1B6024E4081034E66
:105A6000DFC6044E4181054E4281064E4381074EFA
:105A7000F2CD084EC9D5094EFDC80A4ECFC90B4E0E
:105A8000C2CF0C4EA2D80D4EBBB20E4EEBD30F4E72
:105A90004481104EA4D8114EF3B3124E4581134EDB
:105AA000A8D7144ED2C7154EA7D8164EC0CA174E47
:105AB0004681184EF0C7194EFBB11A4EB5D21B4E97
:105AC000D4B41C4EABB61D4EBFCB1E4EA9D81F4E34
:105AD0004781204E4881214E4981224EAAB6234E4D
