:020000040800F2
:100000000804002045010008790300083D030008AA
:10001000750300088D010008810B00080000000036
:10002000000000000000000000000000D5030008F0
:10003000910100080000000091030008E904000895
:100040005F0100085F0100085F0100085F01000810
:100050005F0100085F0100085F0100085F01000800
:100060005F0100085F0100085F0100085F010008F0
:100070005F0100085F0100085F0100085F010008E0
:100080005F0100085F0100085F0100085F010008D0
:100090005F0100085F0100085F0100085F010008C0
:1000A0005F0100085F0100085F0100085F010008B0
:1000B0005F0100085F0100085F0100085F010008A0
:1000C0005F0100085F0100085F0100085F01000890
:1000D0005F0100085F0100085F0100085F01000880
:1000E0005F0100085F0100085F0100085F01000870
:1000F0005F0100085F0100085F0100085F01000860
:100100005F0100085F0100085F0100085F0100084F
:100110005F0100085F0100085F0100085F0100083F
:100120005F0100085F0100085F0100085F0100082F
:10013000DFF80CD000F018F800480047F10B000879
:10014000080400200648804706480047FEE7FEE70F
:10015000FEE7FEE7FEE7FEE7FEE7FEE7FEE7FEE777
:100160002905000831010008064C074D06E0E0684B
:1001700040F0010394E8070098471034AC42F6D3EE
:10018000FFF7DAFF6C0C00088C0C000800BFFEE7DC
:1001900070472DE9F041024600250026002000238B
:1001A0000024002791F803C00CF00F0591F803C05C
:1001B0000CF0100CBCF1000F03D091F802C04CEA17
:1001C000050591F800C0BCF1000F31D01468002083
:1001D0002BE04FF0010C0CFA00F3B1F800C00CEA70
:1001E00003069E4220D183004FF00F0C0CFA03F758
:1001F000BC4305FA03FC4CEA040491F803C0BCF1CB
:10020000280F06D14FF0010C0CFA00FCC2F814C004
:100210000AE091F803C0BCF1480F05D14FF0010C82
:100220000CFA00FCC2F810C0401C0828D1D314609E
:10023000B1F800C0BCF1FF0F34DD546800202EE09F
:1002400000F1080C4FF0010808FA0CF3B1F800C0F7
:100250000CEA03069E4221D183004FF00F0C0CFAEA
:1002600003F7BC4305FA03FC4CEA040491F803C00D
:10027000BCF1280F05D100F1080C08FA0CF8C2F8FF
:10028000148091F803C0BCF1480F07D100F1080CAD
:100290004FF0010808FA0CF8C2F81080401C08283A
:1002A000CED35460BDE8F081F0B50A4600230024A7
:1002B0000021002500F00046B6F1004F02D11D4E8E
:1002C000F16901E01B4E7168C0F3034583B200F48D
:1002D0004016B6F5401F08D121F07061154E7668C2
:1002E00026F07066134F7E6012E000F48016B6F5BB
:1002F000801F06D1032606FA05F4A14341F0706180
:1003000006E0460D360103FA06F6B14341F070618E
:1003100022B1460D360103FA06F6314300F00046DD
:10032000B6F1004F02D1034EF16101E0014E716060
:10033000F0BD0000000001400161704700BFFEE712
:1003400008B50121102000F035F8FF20ADF80000BD
:1003500010208DF8030003208DF802006946044840
:10036000FFF717FFFF210248FFF7E6FF08BD000077
:100370000010014000BFFEE7704700000249014342
:10038000024A1160704700000000FA050CED00E021
:100390007047000029B1064AD2690243044BDA6172
:1003A00004E0034AD2698243014BDA6170470000DE
:1003B0000010024029B1064A92690243044B9A6137
:1003C00004E0034A92698243014B9A61704700003E
:1003D00000100240704710B500F002F810BD000098
:1003E0000CB50020019000903348006840F4803044
:1003F0003149086000BF3048006800F400300090C8
:100400000198401C0190009818B90198B0F5A06FB0
:10041000F1D12948006800F4003010B101200090AB
:1004200001E0002000900098012843D12348006893
:1004300040F01000214908600846006820F00300E1
:1004400008600846006840F0020008601A484068EA
:10045000194948600846406848600846406840F4CA
:10046000806048600846406820F47C104860084678
:10047000406840F4E81048600846006840F080702A
:10048000086000BF0C48006800F000700028F9D038
:100490000948406820F00300074948600846406862
:1004A00040F00200486000BF0348406800F00C00C4
:1004B0000828F9D10CBD00000010024000200240C5
:1004C000042808D14FF0E021096941F004014FF000
:1004D000E022116107E04FF0E021096921F00401F9
:1004E0004FF0E022116170477047000010B50446DC
:1004F0006FF00400FFF7E4FFE11704EB5171C1F363
:10050000C701074A11701046007800EB4001C1EBAB
:10051000C0104FF6FF7101EAC0000249088010BD0B
:10052000000000200200002010B51348006840F0D1
:1005300001001149086008464068104908400E490A
:100540004860084600680E4908400B4908600846A4
:10055000006820F4802008600846406820F4FE000F
:1005600048604FF41F008860FFF735FF4FF00060D0
:100570000449086010BD0000001002400000FFF8B0
:10058000FFFFF6FE08ED00E030B597B005460C46DB
:1005900001211020FFF70EFF01210220FFF7FAFED4
:1005A00001210846FFF706FF4020ADF80C000320AC
:1005B0008DF80E0018208DF80F0003A94548FFF7AD
:1005C000E8FD8020ADF8080003208DF80A0018200F
:1005D0008DF80B0002A93F48FFF7DBFD4FF4807058
:1005E000ADF8040003208DF8060018208DF80700F0
:1005F00001A93848FFF7CDFD4FF40070ADF80000B9
:1006000003208DF8020018208DF803006946314858
:10061000FFF7BFFD01213048FFF746FEADF854500B
:10062000ADF850400020ADF85600ADF8520014A9C6
:100630002A4800F053FA6020ADF840000220ADF8DF
:1006400048000120ADF8420010A9244800F0E2F86B
:100650006020ADF830000220ADF838000120ADF880
:1006600032000CA91D4800F02BF96020ADF82000E5
:100670000220ADF828000120ADF8220008A9174893
:1006800000F07EF96020ADF810000220ADF81800EF
:100690000120ADF8120004A9104800F0CBF90821A0
:1006A0000E4800F003F908210C4800F05BF908211E
:1006B0000A4800F0B5F90821084800F0F9F90121CD
:1006C000064800F08FF80121044800F097F817B0B1
:1006D00030BD000000100140000C1A000004004072
:1006E00030B595B005460C4601210820FFF762FEA3
:1006F00001210420FFF74EFE00210120FFF75AFEE2
:100700004FF47070ADF8040003208DF80600182037
:100710008DF8070001A93148FFF73BFD00214FF498
:100720008050FFF7C1FDADF84C50ADF848400020B7
:10073000ADF84E00ADF84A0012A9294800F0CEF9F4
:100740006020ADF838000220ADF840000120ADF87F
:100750003A000EA9224800F05DF86020ADF82800AC
:100760000220ADF830000120ADF82A000AA91C488B
:1007700000F0A6F86020ADF818000220ADF82000C7
:100780000120ADF81A0006A9154800F0F9F860201C
:10079000ADF808000220ADF810000120ADF80A0005
:1007A00002A90F4800F046F908210D4800F07EF834
:1007B00008210B4800F0D6F80821094800F030F96C
:1007C0000821074800F074F90121054800F00AF8F3
:1007D0000121034800F012F815B030BD000C0140B3
:1007E0000008004021B1028842F08002028004E04B
:1007F00002884FF67F731A400280704721B1028849
:1008000042F00102028004E002884FF6FE731A40B3
:100810000280704770B5002400220023058C4FF63B
:10082000FE7635400584028C8388048B4FF68F75E5
:100830002C40B51E2C400D882C43751E2A400D8976
:100840002A434D882A43144DA8420BD0134DA84289
:1008500008D0134DA84205D0124DA84202D0124D27
:10086000A84213D14FF6F7752A404D892A434FF617
:10087000FB752A408D882A434FF6FF652B404FF6C3
:10088000FF552B408D892B43CD892B4383800483D7
:10089000CD888586028470BD002C01400034014063
:1008A0000040014000440140004801400A46002148
:1008B000018B4FF6F7731940114301837047000015
:1008C00070B5002400220023058C4FF6EF763540EA
:1008D0000584028C8388048B48F6FF752C404FF604
:1008E000FF452C400D884FF6FF7606EA05252C4380
:1008F0004FF6DF752A400D8906EA05152A434D8813
:1009000006EA05152A43154DA84202D0144DA84207
:100910001DD14FF67F752A404D894FF6FF7606EAC6
:1009200005152A434FF6BF752A408D8806EA05153E
:100930002A434FF6FF352B404FF2FF752B408D8930
:1009400006EA85052B43CD8906EA85052B4383807E
:100950000483CD880587028470BD0000002C01400F
:10096000003401400A460021018B4FF2FF73194009
:100970004FF6FF7303EA0223194301837047000017
:1009800070B5002400220023058C4FF6FF66354029
:100990000584028C8388848B4FF68F752C404FF62C
:1009A000FC752C400D882C434FF6FF552A400D89CD
:1009B0004FF6FF7606EA05252A434D8806EA052507
:1009C0002A43154DA84202D0144DA8421DD14FF222
:1009D000FF752A404D894FF6FF7606EA05252A4322
:1009E0004FF6FF352A408D8806EA05252A434EF644
:1009F000FF752B404DF6FF752B408D8906EA0515D6
:100A00002B43CD8906EA05152B4383808483CD884B
:100A10008587028470BD0000002C01400034014035
:100A20000A460021818B4FF6F773194011438183E9
:100A30007047000070B5002200230024058C4EF69C
:100A4000FF7635400584038C8488828B48F6FF75D9
:100A50002A404FF6FF452A400D884FF6FF7606EAFA
:100A600005252A434DF6FF752B400D8906EA05350D
:100A70002B434D8806EA05352B430B4DA84202D087
:100A80000A4DA84208D14BF6FF752C408D894FF6D0
:100A9000FF7606EA85152C4384808283CD88A0F8F2
:100AA0004050038470BD0000002C01400034014020
:100AB0000A460021818B4FF2FF7319404FF6FF73F6
:100AC00003EA0223194381837047818670470187B7
:100AD000704781877047A0F8401070470022028855
:100AE0001D4B98420ED01D4B98420BD0B0F1804F59
:100AF00008D01B4B984205D01A4B984202D01A4B93
:100B0000984204D14FF68F731A404B881A43174B03
:100B1000984207D0164B984204D04FF6FF431A4034
:100B2000CB881A4302808B8883850B8803850A4B08
:100B300098420BD0094B984208D00E4B984205D0F2
:100B40000D4B984202D00D4B984201D10B7A03868F
:100B50000123838270470000002C014000340140D3
:100B60000004004000080040000C0040001000405D
:100B70000014004000400140004401400048014092
:100B800000BFFEE702E008C8121F08C1002AFAD120
:100B900070477047002001E001C1121F002AFBD1FD
:100BA000704700000146114A12884A434FF0E02383
:100BB0005A6100229A611A46126942F001021A61D2
:100BC00000BF4FF0E022106900F001021AB100F4FA
:100BD0008032002AF5D04FF0E022126922F00102A3
:100BE0004FF0E0231A6100229A6170470200002052
:100BF000002400BF00254820FFF778FC4FF4A060D8
:100C0000FFF7BCFBFFF79CFB47214FF4FA70FFF79F
:100C1000BBFC47214FF4FA70FFF762FD23E035B9C2
:100C2000601C84B2B4F5C87F05D1012503E0601EC5
:100C300084B204B90025C4F5C87081B20A48FFF730
:100C400044FF21460848FFF742FFC4F5C87081B24F
:100C50000548FFF73EFF40F2F3110348FFF73BFF63
:100C60000A20FFF79FFFDAE7000800408C0C00081D
:100C70000000002004000000840B0008900C000815
:100C80000400002004040000940B00080000000091
:0400000508000131BD
:00000001FF
